:020000022000DC
:1060000000000120BD620200E5620200E7620200BA
:10601000E9620200EB620200ED6202000000000093
:10602000000000000000000000000000EF6202001D
:10603000F162020000000000F3620200F56202005B
:1060400095B30200F7620200C5BB0200E95E0300DF
:10605000F7620200F762020081B70200A96903003B
:10606000F7620200A5520300FD520300F76202002E
:10607000F7620200F7620200F7620200F7620200B4
:106080004564030031800200F7620200F7620200FB
:10609000F7620200F76202008D4D0300F762020012
:1060A000F7620200F762020055530300F762020034
:1060B000B9570300F7620200000000000000000072
:1060C000F7620200F7620200F7620200F762020064
:1060D000F7620200F7620200F762020000000000AF
:1060E00000000000000000000000000000000000B0
:1060F00000000000000000000000000000000000A0
:10610000000000000000000000000000000000008F
:10611000000000000000000000000000000000007F
:10612000000000000000000000000000000000006F
:10613000000000000000000000000000000000005F
:10614000000000000000000000000000000000004F
:10615000000000000000000000000000000000003F
:10616000000000000000000000000000000000002F
:10617000000000000000000000000000000000001F
:10618000000000000000000000000000000000000F
:1061900000000000000000000000000000000000FF
:1061A00000000000000000000000000000000000EF
:1061B00000000000000000000000000000000000DF
:1061C00000000000000000000000000000000000CF
:1061D00000000000000000000000000000000000BF
:1061E00000000000000000000000000000000000AF
:1061F000000000000000000000000000000000009F
:1062000010B5054C237833B9044B13B10448AFF3F0
:1062100000800123237010BDE8370020000000003B
:106220003CBF030008B5034B1BB103490348AFF360
:10623000008008BD00000000EC3700203CBF0300D8
:10624000A3F5803A704700BF174B002B08BF134BD4
:106250009D46FFF7F5FF00218B460F461348144A71
:10626000121A10F047FE0E4B002B00D098470D4B32
:10627000002B00D098470020002104000D000D489D
:10628000002802D00C48AFF3008010F0F1FD200090
:10629000290007F0ABFF10F0D7FD00BF0000080099
:1062A000000000000000000000000120E83700208E
:1062B0005876002000000000000000000649074A50
:1062C000074B9B1A03DD043BC858D050FBDC04F09D
:1062D000E3FCFFF7B9FF0000F0C0030068350020C1
:1062E000E8370020FEE7FEE7FEE7FEE7FEE7FEE711
:1062F000FEE7FEE7FEE7FEE7704700BF00B583B0AC
:10630000044B0093044A402300F036F803B05DF8D4
:1063100004FB00BF1D6302000838002002B32DE912
:10632000F843114B114E88461446032743F00109E8
:106330000025224608EB0501002008F0CDFB0346AE
:10634000E41A4FF47A401D4423B9337833B1C84777
:10635000013F06D001233370002CEAD1BDE8F88359
:1063600070473770BDE8F88340840300043800208C
:10637000704700BF08F086BCF0B595B00846002411
:106380000E4617461D4604F0C5FA1A9A0D9223468A
:10639000082205A93046CDE9095408978DF82C400C
:1063A0000C9404F01BFBDDE906219DF814308DF8F8
:1063B0001140CDE9021203F00302012A28D0022A7B
:1063C00004D0304604F0AAFA15B0F0BDBDF816505E
:1063D000C3F3C203C5F389158DF810300827082DC3
:1063E0002C4628BF08243B4622460EA9304604F01E
:1063F000F5FA2D1B08AB02AA21460EA8274400F08F
:1064000013FF002DEBD1304604F088FA15B0F0BD33
:10641000BDF814100598C1F38312C3F3C203C0F38F
:106420009525C1F383148DF810300EA930469200E3
:10643000082304F0D3FA08AB0093224602AB0EA95E
:10644000284600F07BFE304604F068FA15B0F0BD37
:1064500008B5FFF78FFF0448042100F0EBFD034B64
:1064600001225A7108BD00BFC4C003006835002076
:10647000064B074810B500221A7004F0FFF90446D5
:1064800010B9044804F080FB204610BD18390020E4
:10649000D4C003007C84030030B499B10D490E4D83
:1064A000491BC90813D00D4C002302E00133994267
:1064B0000AD034F823208242F8D1184655F830002B
:1064C00030BC7047044DF9E7002030BC70470846E7
:1064D000F6E700BF94C00300A4BF0300D437002038
:1064E000094B013903EBC00003290BD8DFE801F0A9
:1064F0000402080604207047022070474079704764
:106500000079704700207047A4BF0300704700BFA8
:106510002DE9F043904CD4E901239A4285B060D034
:106520000023C4F81834BFF34F8FA568EAB2D31C18
:1065300004EB830114F82330580718D566680B78EC
:1065400003F00303012B42D0022B03D14B88023509
:1065500005EB9315EAB2D4F81804D31C04EB8301BD
:1065600028B9AE4239D914F823305B07E7D404EBDD
:1065700082026B1CDBB2D26804EB830302F00301DE
:10658000DB680229CDE9012305F102062DD001299E
:1065900000F09280D4F810543DB12B6828469B68D7
:1065A0009847EB681D68002DF7D16C486C4B6D491E
:1065B000C01AC008000440F0020000F065FCD4E9F5
:1065C0000130C01A18BF012005B0BDE8F0830B8868
:1065D0000235C3F383131D44BCE7A66005B0BDE8D4
:1065E000F083002005B0BDE8F083BDF806305E48BA
:1065F000C3F389184546502D28BF502505F10801E1
:1066000065F38F13C1F30901ADF8063004F038F9D2
:1066100007460028BED004F07DF90023082201A916
:10662000384604F0A7F9F343DBB20133B5EB830F2F
:106630004FEA83027ED9F1B25FFA82F9033104EBAB
:10664000810138460823A5EB090504F093F9EDB262
:1066500009F10803454903F0FC032A46384604F0D3
:1066600089F908F1030806EB9806D4F81834002BD2
:106670006ED1D4F8105465B1EB685A792846394682
:10668000002A61D02B681B689847EB681D68002DB5
:10669000F2D1384604F042F900230DF103008DF8E1
:1066A000033001F029FBD4F8183403B9A6609DF833
:1066B000030001F047FB82E7BDF804202A48C2F33B
:1066C0008313062B28BF062363F38912023303F0DA
:1066D0000F018900ADF8042004F0D2F80746002825
:1066E0003FF458AF04F016F90023082201A93846F8
:1066F00004F040F9BDF8043013F4707FB5D06FF0AA
:1067000001094FF00808A9EB0509F1B2033143462E
:10671000042204EB8101384604F02CF9BDF8043062
:106720000136C3F3831309EB0602934208F1040810
:10673000EBD89AE7F1B203312A4604EB8101082332
:10674000384604F017F98CE71D68002D94D1A0E7B6
:10675000384604F0E3F832E718390020F4BF0300AC
:10676000A4BF030064840300D4C0030024390020C4
:106770002DE9F04F89B0DFF8C8B103930646002336
:106780000DF113008DF81330CDE9011201F0B4FAC8
:10679000DBF80830DBF8047003F58073DB1B052B96
:1067A00078D80BF21C450BF583680BF2144419E002
:1067B000BDF81630C3F3891303334FEA11490AEBCE
:1067C000930A204603F0ECF808B1CBF808A049463C
:1067D000284603F0B5F8DBE9012303F580739B1A23
:1067E000052B58D80121284603F0AAF8404603F0AB
:1067F000CBF8204603F0C8F8DBF80830DAB2D11C39
:106800000BEB810C1BF8211001F00400490721D487
:106810000BEB8202591CD2680592C9B202F0030246
:106820000BEB8101012AC96803F1020A2AD0022A6E
:10683000BED04FF00009C4E7BCF802300EEB931352
:10684000DAB2D11C0BEB810C1BF8210000F0040024
:106850000028DDD09CF8001001F0030101290AD0C6
:10686000022903F1020E02F10301E5D00BEB810CCA
:106870000028EFD1CCE7BCF800200233C2F383122A
:106880001344DDE7BDF81430C3F383134FEA114915
:106890009A4496E73A46D3B20333063240F20511E2
:1068A0009DF813004BF82310CBF8042001F04AFAAE
:1068B000BB1CDBB20BEB8303029ADA60FB1CDBB27E
:1068C0000BEB8303039ADA603B1DDBB20BEB830314
:1068D000129ADA607B1DDBB20BEB8303139ADA604A
:1068E0000021164802F0F2FF80F31001F30003F0DC
:1068F0003803019A43F4807343F00103781C43EAA0
:106900008223C0B2FAB209040BEB8000033241EAE1
:106910001641C1604BF822309BF8003023B9FFF7D5
:10692000F5FD09B0BDE8F08FFFF7F2FD0028F6D0C5
:10693000FFF7EEFD0028F7D1F1E700BF343D00205E
:10694000183900202DE9F04F89B0DFF8B4B1039376
:10695000064600230DF113008DF81330CDE9011226
:1069600001F0CAF9DBF80830DBF8047003F5807336
:10697000DB1B042B78D80BF21C450BF583680BF25C
:10698000144419E0BDF81630C3F3891303334FEAFA
:10699000114A09EB9309204603F002F8514608B169
:1069A000CBF80890284602F0CBFFDBE9012303F582
:1069B00080739B1A042B58D80121284602F0C0FF8F
:1069C000404602F0E1FF204602F0DEFFDBF808302F
:1069D000DAB2D11C0BEB810C1BF8211001F0040082
:1069E000490721D40BEB820203F10209D268059218
:1069F0000133DBB20BEB830302F00302012AD968F7
:106A00002AD0022ABED04FF0000AC4E7BCF80230F8
:106A10000EEB9313DAB2D11C0BEB810C1BF82100A7
:106A200000F004000028DDD09CF8001001F0030104
:106A300001290AD0022903F1020E02F10301E5D077
:106A40000BEB810C0028EFD1CCE7BCF8002002331F
:106A5000C2F383121344DDE7BDF81430C3F383138C
:106A60004FEA114A994496E73A46D3B203330532C6
:106A7000C5219DF813004BF82310CBF8042001F03A
:106A800061F9BB1CDBB20BEB8303029ADA60FB1CDF
:106A9000DBB20BEB8303039ADA603B1DDBB20BEB3B
:106AA0008303129ADA600021144802F00FFF80F38A
:106AB0001001F200019B02F0380242F0C102781C82
:106AC00042EA8322C0B2FBB2033309040BEB80001D
:106AD00041EA1641C1604BF823209BF8003023B9EE
:106AE000FFF714FD09B0BDE8F08FFFF711FD002896
:106AF000F6D0FFF70DFD0028F7D1F1E7343D002077
:106B0000183900202DE9F04FDFF8BCB189B000241E
:106B100006460DF113000393CDE901128DF81340E1
:106B200001F0EAF8DBF80830DBF8047003F5807355
:106B3000DB1B032B00F281800BF21C450BF58368F5
:106B40000BF214441AE0BDF81630C3F38913033373
:106B50004FEA11490AEB930A204602F021FF494609
:106B600000283AD02846CBF808A002F0E9FEDBE97D
:106B7000012303F580739B1A032B5FD8012128465C
:106B800002F0DEFE404602F0FFFE204602F0FCFE70
:106B9000DBF80830DAB2D11C0BEB810C1BF82110AA
:106BA00001F00400490728D40BEB82015A1CC96884
:106BB0000591D2B201F003000BEB82020128D168EB
:106BC00003F1020A31D00228BDD0204602F0E8FECF
:106BD0004FF0000949460028C4D12846C5E7BCF853
:106BE00002300EEB9313DAB2D11C0BEB810C1BF8C5
:106BF000210000F004000028D6D09CF8001001F01D
:106C0000030101290AD0022903F1020E02F1030156
:106C1000E5D00BEB810C0028EFD1C5E7BCF80020D4
:106C20000233C2F383121344DDE7BDF81430C3F31B
:106C300083134FEA11499A448EE73A46D3B203339D
:106C4000043285219DF813004BF82310CBF8042063
:106C500001F078F8BB1CDBB20BEB8303029ADA601D
:106C6000FB1CDBB20BEB8303039ADA6000211548AF
:106C700002F02CFE80F31001F300019A03F03803B8
:106C800043F08103781C43EA8223C0B2FAB20904BC
:106C90000BEB8000033241EA1641C1604BF8223011
:106CA0009BF8003023B9FFF731FC09B0BDE8F08F45
:106CB000FFF72EFC0028F6D0FFF72AFC0028F7D1BA
:106CC000F1E700BF343D0020183900202DE9F04FD6
:106CD000DFF8B0B187B0002306460DF10B008DF848
:106CE0000B30CDE9001201F007F8DBE9018303F571
:106CF0008073A3EB0803022B00F281800BF21C458A
:106D00000BF583670BF214441AE0BDF80E20C2F3B2
:106D1000891203324FEA114A09EB9209204602F028
:106D20003FFE514600283AD02846CBF8089002F0A2
:106D300007FEDBE9012303F580739B1A022B5FD862
:106D40000121284602F0FCFD384602F01DFE2046D7
:106D500002F01AFEDBF80830DAB2D11C0BEB810C22
:106D60001BF8211001F00400490728D40BEB820125
:106D70005A1CC9680391D2B201F003000BEB8202E6
:106D80000128D16803F1020931D00228BDD0204684
:106D900002F006FE4FF0000A51460028C4D12846F2
:106DA000C5E7BCF802300EEB9313DAB2D11C0BEB43
:106DB000810C1BF8211001F004000028D6D09CF8AB
:106DC000001001F0030101290AD0022903F1020E8B
:106DD00002F10301E5D00BEB810C0028EFD1C5E7F0
:106DE000BCF800200233C2F383121344DDE7BDF880
:106DF0000C20C2F383124FEA114A91448EE74246B7
:106E0000D3B20333033245219DF80B004BF8231016
:106E1000CBF8042000F096FF08F10203DBB20BEB85
:106E20008303019ADA600021154802F04FFD80F3D8
:106E30001001F300009A03F0380343F0410308F116
:106E4000010043EA8223C0B25FFA88F209040BEB27
:106E50008000033241EA1641C1604BF822309BF8B2
:106E6000003023B9FFF752FB07B0BDE8F08FFFF702
:106E70004FFB0028F6D0FFF74BFB0028F7D1F1E7D6
:106E8000343D0020183900202DE9F04FDFF8A0A193
:106E900087B0002306460DF10B008DF80B300191F1
:106EA00000F02AFFDAE9018303F58073A3EB0803FE
:106EB000012B00F281800AF21C450AF583670AF271
:106EC00014441AE0BDF80E30C3F3891303334FEABC
:106ED00011490BEB930B204602F062FD4946002856
:106EE0003AD02846CAF808B002F02AFDDAE90123B0
:106EF00003F580739B1A012B5FD80121284602F00D
:106F00001FFD384602F040FD204602F03DFDDAF854
:106F10000830DAB2D11C0AEB810C1AF8211001F00A
:106F20000400490728D40AEB82015A1CC96803915E
:106F3000D2B201F003000AEB82020128D16803F10A
:106F4000020B31D00228BDD0204602F029FD4FF0BF
:106F5000000949460028C4D12846C5E7BCF80230DC
:106F60000EEB9313DAB2D11C0AEB810C1AF8211044
:106F700001F004000028D6D09CF8001001F00301B5
:106F800001290AD0022903F1020E02F10301E5D022
:106F90000AEB810C0028EFD1C5E7BCF800200233D2
:106FA000C2F383121344DDE7BDF80C30C3F383133F
:106FB0004FEA11499B448EE74246D3B20333023273
:106FC00005219DF80B004AF82310CAF8042000F0B0
:106FD000B9FE0021154802F079FC80F31001F3009E
:106FE000019A03F0380343F0010308F1010043EA7A
:106FF0008223C0B25FFA88F209040AEB80000332F0
:1070000041EA1641C1604AF822309AF8003023B9AB
:10701000FFF77CFA07B0BDE8F08FFFF779FA002898
:10702000F6D0FFF775FA0028F7D1F1E7343D0020DC
:107030001839002030B4154DD5F81014044600203E
:1070400071B10B4601E01B6853B1DB681A798242CB
:10705000F9D101300A28F3D14FF0FF3030BC70472E
:10706000E3681871D5F810344BB1DA68E368126838
:107070001A60D5F81034DB681C6030BC7047C5F866
:107080001044E268136030BC704700BF183900201C
:1070900038B5084BD3F8104401251D704CB1E36896
:1070A0005D71236820465B689847E3681C68002C84
:1070B000F5D138BD1839002030B5C38885B00446F5
:1070C0000D4623BB237A052B1FD0627A82B9144A5E
:1070D000A08852F8232003920021FFF7DDF9039ADC
:1070E00010490346284605B0BDE8304002F0D2BC46
:1070F0001946A088FFF7F4F90B4B0C4953F82020F0
:10710000284602F0C7FC237AE1E705B030BD084904
:107110000091084A0849284602F0BCFCD2E700BFAB
:1071200050850300B08403002C850300109B0300EE
:10713000A884030088840300908403002DE9F043B1
:1071400085B01D460C9C002394F80C902373804658
:107150000E46174621462846FFF7AEFF062F09D8F0
:10716000DFE807F0042E343B444F1F004146204621
:1071700002F090FC2B7A052B05D06B7A5BB927497E
:10718000204602F087FC204602F078FC84F80C9040
:1071900005B0BDE8F083224A2249204602F07AFC7D
:1071A000EDE77369039333690293F3680193B3685E
:1071B0000093D6E900234146204602F06BFCD9E754
:1071C00032684146204602F065FCD3E7D6E9002349
:1071D0004146204602F05EFCCCE7B3680093D6E956
:1071E00000234146204602F055FCC3E7F3680193B3
:1071F000B3680093D6E900234146204602F04AFCDA
:10720000B8E733690293F3680193B3680093D6E952
:1072100000234146204602F03DFCABE7BC8403005E
:10722000A8840300109B0300082900D970472DE9AA
:10723000F04F1D4683B000241B7B2C730E4607467F
:107240002946104690460193DFF8D0B0DFF8D0A071
:10725000FFF732FF05E03A5D013402F01BFC082C19
:1072600009D0A64251462846F5D85946013402F0C5
:1072700011FC082CF5D12449DFF8A8B0234CDFF825
:10728000A8A0284602F006FC4FF0000917E017F806
:107290000910481C7E294FF02E02C0B206D810F803
:1072A0000A2012F0970F14BF0A462E2221462846C4
:1072B00009F1010902F0EEFBB9F1080F0AD04E45C1
:1072C000E5D85946284609F1010902F0E3FBB9F176
:1072D000080FF4D198F80830052B02D098F809303F
:1072E0005BB90B49284602F0D5FB284602F0C6FBE5
:1072F000019B2B7303B0BDE8F08F064A0649284670
:1073000002F0C8FBEDE700BFCC840300D08403008B
:10731000BC840300A8840300109B0300C8840300FE
:10732000C0840300B884030002BE030038B5174BC5
:107330001D783DB3164A1168C0B200230C4604E024
:107340000133AB4204F108041CD011F83320904201
:10735000F6D104F00BFA6378A3F10103B3FA83F3D7
:107360005B09834200D038BD0A4BD3E900231343A5
:10737000F9D1094B094819680022BDE8384049088D
:1073800000F01EBC00231B78FFDE00BFD03D0020B4
:10739000F03D0020D83D0020D43D00207035002075
:1073A0002DE9F04FDFF8788298F8003083B0002B99
:1073B00000F02B81DFF86C92954F964E00254FF030
:1073C000010AD7F800B01BF8350004F0CFF91BF81C
:1073D00035400BEBC50361085B7816F801C014F06B
:1073E000010EA3F10103B3FA83F314BF4FEA1C1299
:1073F0000CF00F025B09042A00F2EA80DFE802F0D9
:10740000725F33200300834240F09F80BEF1000F83
:107410000CBFF0230F230CEA030C0CBF0323302313
:1074200043EA0C03735498F8002001359542C8DBF9
:10743000D9E90023134340F0DE8003B0BDE8F08FAC
:10744000834200F0C580BEF1000F0CBFF0230F2374
:107450000CEA030C0CBF0423402343EA0C037354CF
:1074600098F80020E1E7834240F0B580BEF1000FBC
:107470000CBFF0230F230CEA030C98F800200CBF7C
:107480000323302343EA0C037354002AD0D0D7F8E7
:1074900000C00023614603E0934201F10801C4D01B
:1074A0001CF83300A04203F10103F5D14B68002B17
:1074B000BBD020460121984798F80020B5E78342C9
:1074C00019BF00231A4620230222BEF1000F16BF67
:1074D0001A46F0230F230CEA03031A43725498F858
:1074E0000020A2E7834273D14FF00003BEF1000FEA
:1074F0008DF8073014BF0F23F0230CEA030C14BFE0
:107500001023012343EA0C030DF10700735400F02C
:10751000F3FBA4F12003C4F120022AFA02F20AFAD2
:1075200003F31343D9F800209DF807000AFA04F486
:107530002243C9F80020D9F804201343C9F80430C5
:1075400000F000FC98F800206FE7BEF1000F14BFB8
:107550000F23F0230CEA030398F800C07354BCF126
:10756000000F12D038680023024603E0634502F1A1
:1075700008020AD010F83310A14203F10103F5D13B
:10758000536813B10021204698474FF000030DF1D6
:1075900007008DF8073000F0AFFBA4F12003C4F121
:1075A00020022AFA02F20AFA03F31343D9F8002060
:1075B0009DF807000AFA04F422EA0402C9F8002040
:1075C000D9F8042022EA0303C9F8043000F0BAFB1A
:1075D00098F8002029E7BEF1000F0CBFF0230F231D
:1075E0000CEA030C0CBF0123102343EA0C03735471
:1075F00098F8002019E7084B084819680022490844
:1076000003B0BDE8F04F00F0DBBADFF818900FE7E9
:10761000F03D0020E03D0020D43D002070350020EA
:10762000D03D0020D83D0020092A3FD9F0B583B0D5
:10763000144605460E4603F039FF88B3204B214A15
:107640001E70214B1560002120481C6010220FF095
:1076500051FC1F4B00200021741EC3E90001E4B25D
:1076600036B31C4F05EBC404032602E0A5421FD02D
:107670001C469DF8063094F802C020788DF804600E
:1076800023F007033A4601A98DF806308DF805C0AE
:1076900003F016FFA4F108030028E7D003B0F0BD03
:1076A00003F0B0FE0028C9D003B0F0BD072070473A
:1076B000094A0A48002103B0BDE8F04000F068BA6A
:1076C000D03D0020F03D0020D43D0020E03D0020D2
:1076D000D83D00202D730200A173020070850300C5
:1076E00070B5084D2B785BB1074E0024336801213B
:1076F00013F8340003F0D8FF2B780134A342F5D8F7
:10770000002070BDD03D0020F03D002000B585B0C8
:107710000346002101AA44F20100CDE901110393BF
:1077200000F004F805B05DF804FB00BF10B572B6B8
:10773000FFF7AEFCFEF7ECFE0028FBD1104B114C1E
:107740001149E41AE408240444F00100FFF79CFB0B
:107750000E4BD3F8F030DB0700D500BE0C4944F0E7
:107760000200FFF791FBBFF34F8F0849094BCA682E
:1077700002F4E0621343CB60BFF34F8F00BFFDE71D
:10778000A4BF0300F4BF03007485030000ED00E014
:10779000808503000400FA0530B48D688468C368EE
:1077A000CA68A54272EB03032CBF0120002030BC45
:1077B000704700BF10B5044682B000230DF10700EA
:1077C0008DF8073000F098FA23692BB94FF0FF329B
:1077D0004FF0FF33C4E902239DF8070000F0B2FA2E
:1077E000D4E90530984700230DF107008DF80730E4
:1077F00000F082FA2369BBB1D4E90212B2F1FF3F73
:1078000008BFB1F1FF3F0FD05B1842F10002C4E99D
:1078100002329DF8070000F095FA0748214603F070
:10782000D7F9012002B010BD9DF8070000F08AFAD8
:10783000002002B010BD00BFA08503002DE9F04F6D
:107840002DED028B83B008EE100A00F0AFFB40B1C3
:10785000AC4AD2E9003113F1807341F10001C2E971
:10786000003118EE100A002100F0BCFBA64D60B3F9
:107870002B6853B3A54B2C681B7823B31CB3A448C7
:1078800000F0C0FB9F4BA34A19685B684018D2E91F
:10789000001243F10003884273EB020203D210F19D
:1078A000807043F10003D4E902128842934180F0D2
:1078B0002581B2F1FF3F08BFB1F1FF3F03D09648E9
:1078C000214603F085F900232B6018EE100A0121F0
:1078D00000F088FB002840F0F180904801A901F0F9
:1078E00041FF00283AD08D4C4FF0FF384FF0FF3960
:1078F00009E033B301A9204601F066FF01A9204643
:1079000001F030FF50B30378012B11D0022BF0D1DE
:10791000814E304603F070F930B1C0E9028930463B
:1079200003F06AF90028F8D1784B01221A70E1E7D8
:107930002B684168994200F0B580774803F066F9FA
:10794000D8E74168D1E90223B3F1FF3F08BFB2F1A4
:10795000FF3FCFD0704803F03BF9CBE76E4FDFF825
:10796000B081DFF8A091384603F04CF9002852D0DE
:10797000D0E90223B3F1FF3F08BFB2F1FF3F00F0AF
:107980008D80296891B12968D1E9020182428B4139
:1079900044D22B68D3E90223B3F1FF3F08BFB2F111
:1079A000FF3F03D02968384603F012F9384603F048
:1079B00023F904464046574ED4E902BA00F022FBB0
:1079C000D9E900133268401843F10003904272680D
:1079D00073EB020203D210F1807043F10003BBEBA2
:1079E00000006AEB0303012873F1000324DBB0F508
:1079F000350F4DD25A464FF496030021404600F011
:107A00004FFA80B10D281BD0002338462B6003F0BD
:107A1000F9F80028ACD12B68002B66D003B0BDEC80
:107A2000028BBDE8F08F2B68002B3ED02C6003B09A
:107A3000BDEC028BBDE8F08F0021404600F0C6FA95
:107A4000324B1B78002BDFD0404600F0DBFAD9F830
:107A50000030D6E90012C018D9F8043043F1000311
:107A6000884273EB020203D210F1807043F10003ED
:107A7000D4E90212884293411CD2B2F1FF3F08BF01
:107A8000B1F1FF3FC0D02146384603F0A1F8BBE773
:107A9000404600F0B7FA224A0244ACE7384603F009
:107AA000ABF860E700232B6024E718EE100A00F023
:107AB000C5F9BBE72046FFF77DFEA5E71448154E44
:107AC00000F0A0FA0F4B1A685B688018D6E9001224
:107AD00043F10003884273EB020203D210F180707D
:107AE00043F10003C6E90003F7E618EE100A03B0FD
:107AF000BDEC028BBDE8F04F00F0A4B92046FFF7C3
:107B000059FEE0E6F83D0020783E0020003E0020CF
:107B100090350020703E0020A08503005C3E0020D0
:107B2000FFFFB40010B5134B13491C68134882B013
:107B300008235822019401F099FD044610B1204613
:107B400002B010BD0E4A0F4801A900F013F9044617
:107B50000028F4D10B48012100F01EFA0123194638
:107B6000094A084800F072F9084B012220461A70B1
:107B700002B010BD9C850300043E00205C3E002046
:107B80003D78020090350020FFFF7F00003E00207E
:107B90006AB19FED097BA1F101010368B1FA81F19E
:107BA000490983ED027BC3E90412002070470720D6
:107BB000704700BFAFF30080FFFFFFFFFFFFFFFF35
:107BC000F0B583B00446002501A817460E468DF88F
:107BD000045000F091F8D4E90223B3F1FF3F08BF4D
:107BE000B2F1FF3F06D09DF8040000F0ABF8284644
:107BF00003B0F0BD1C4800F005FA1C4B1C4A196884
:107C00005B684018D2E9001243F10003884273EB2D
:107C1000020224D3301843F10003A060E3609DF812
:107C2000040000F08FF82369A76103B126611148B1
:107C300001A901F055FD034670B100250D481D70E6
:107C40005C6001A901F07EFD0028D1D0064800F05B
:107C5000DDF9284603B0F0BD042003B0F0BD10F1FB
:107C6000807043F10003D5E790350020F83D0020F7
:107C7000703E00205C3E002030B583B004460025F5
:107C800001A88DF8045000F037F8D4E90223B3F1CD
:107C9000FF3F08BFB2F1FF3F1CD04FF0FF334FF062
:107CA000FF32C4E902239DF8040000F04BF81048AD
:107CB00001A901F015FD034648B10122027001A996
:107CC0000B485C6001F03EFD58B903B030BD0420A4
:107CD00003B030BD9DF8040000F034F8284603B02E
:107CE00030BD044800F092F9284603B030BD00BF13
:107CF0005C3E00209035002070B4EFF3108472B623
:107D00000D4B9A68AAB9012199600C490C4ED1F823
:107D1000805035401D60C1F88060D1F884505D60AE
:107D20004FF0FF33C1F88430027004B962B670BC02
:107D3000704701230370F8E77C3E002000E100E07B
:107D4000FC06FFBD094B9A687AB170B910B4EFF325
:107D5000108172B6064A1C6814605C6854609860B2
:107D600001B962B65DF8044B704770477C3E002055
:107D700000E100E010B5294C437944F82320284C59
:107D800004EBC3031B79002B3BD103680A88C3F8BB
:107D9000082590F904308A78002B2ADB03F1604330
:107DA000520103F56143D2B283F8002390F9043005
:107DB000002B09DB1B494FEA531C012203F01F0370
:107DC00002FA03F341F82C304279174B44F83200A1
:107DD0001648181A04EBC201C0084FF0010C000449
:107DE00081F804C040F003001149FFF74DF800206E
:107DF00010BD104903F00F0352011944D2B20A76A4
:107E0000D4E70A4B08480C49C01AC008000440F0E7
:107E10000200FFF739F8082010BD00BF903E002097
:107E2000883E002000E100E004C00300A4BF03007E
:107E3000D0850300FCEC00E0AC8503000368012260
:107E40001A607047036801225A60704770B4056871
:107E50004FF480348C40C5F80843056801F1500C9C
:107E6000C5F848434FEA8C0C05681FFA8CFC0026C5
:107E700045F80C6083B055F80C500195019D0568DC
:107E800001F5A87122F07F4245F821200268C2F86E
:107E9000444313B10368C3F8044303B070BC704794
:107EA0002DE9F0474FF4803622F07F4702688E407C
:107EB000C2F848630268C2F80863026802EB810CEA
:107EC000044601F15005D2F80405DCF84025CCF851
:107ED0004005AD00ADB2121A20684FF0000840F81E
:107EE000058082B04059009022F07F42012A00981C
:107EF0008A46994641D02268D2F80455C2F84463B4
:107F00007A1B22F07F42012A0AF5A87125D0236846
:107F100043F821702068D0F804557B1BC9F1FF128B
:107F2000013B02F57F4223F07F439A4211D343B1D4
:107F3000C0F8446323680020C3F8046302B0BDE8BE
:107F4000F087013740F821702068D0F804359D4251
:107F5000EED00D2002B0BDE8F0872368013743F86A
:107F600021700C4B4FF4806043F001039847206868
:107F7000D0F804359D42DBD0EBE7064A4FF4806031
:107F800042F001029047226842F80580525901925E
:107F9000019AB0E7F085030002680223C2F8443377
:107FA00011B10268C2F80433704700BF0368D3F808
:107FB000040100B97047002282B0C3F80421D3F84D
:107FC00004310193019B012002B0704702684FF415
:107FD000803303FA01F1C2F848130368C3F80813A9
:107FE000704700BF50318900036889B2585800B902
:107FF000704700225A5082B05B580193019B0120C8
:1080000002B070470368D3F80405704790F9043054
:10801000002B09DB5A09054803F01F0301214032F8
:1080200001FA03F340F82230704700BF00E100E09E
:10803000024A034B10681B68184700BF883E0020A7
:10804000903E00200223F0B50B8000F5805E0830E2
:1080500082B32A4D4FF6FF740126036801331FD007
:10806000478807F1030C00EB8C0CE6451CD3838892
:10807000A34216D00388A3B18368B3F1FF3F10D0A9
:10808000D5F800C09C4501D22B6047880B8803338C
:108090003B440B804388033300EB83008645DCD8E8
:1080A000F0BD16704788F1E7012313704FF4806329
:1080B0000B80F0BD114D4FF6FF7403680133EFD014
:1080C0004388DA1C00EB82029645EFD38288A242F5
:1080D00009D002883AB18268561C04D02E68B24298
:1080E00084BF2A6043880A88033213440B80438884
:1080F000033300EB83008645DFD8F0BDCC3E002083
:108100002DE9F041436888461BB1334AD468A34245
:108110003CD2324E0023A8F800307268012702F5E5
:10812000805C4FF6FF75083294450DD8022FA8F8F1
:10813000007006F114064CD0726802F5805C0832BB
:1081400094454FF00207F1D913680133EED05388FC
:10815000033302EB83039C45E8D3B2F804E0AE4559
:1081600009D014883CB19468611C04D00168A14214
:1081700005D01A46D8E79C45D8D91A46E4E7184BEB
:1081800042601B8903810120BDE8F081126993429E
:10819000BFD813F00305BCD1114A04891289944257
:1081A000B7D104689A689442B3D10C4842689342AC
:1081B00003D902F58052934207D38269934208D9CA
:1081C00002F58052934204D20125A8F80050012004
:1081D000DAE70020D8E700BFD4370020D43E0020E3
:1081E000B83E00202DE9F04F9B4F8BB004464FF670
:1081F000FF783E68002E00F0BA803278531E052BBF
:1082000000F26E82DFE803F058212103033E002CC8
:1082100040F0B4803379012B00F0B682022B00F0DD
:10822000C580002B00F08E8205AD0594C5E902449F
:108230002C6148F20E6406943378023B042B49D833
:10824000DFE803F0897569624500B6F814A0002CD8
:1082500040F05682814D0AEB8A0305EB83034FEA17
:108260008A091C895B6803EB8404B37D062B00F24A
:108270002C84DFE813F0790166019901880145013A
:108280002E010901002C79D1DFF8F0C19CF80C30E7
:10829000002B00F0AA809CF800308CF80C40013BC9
:1082A000062B00F21D82DFE813F01903D502C2018C
:1082B000AE011B0205039A01002C40F01A823379AB
:1082C000032B00F28780DFE803F0BA63789F052371
:1082D0008DF81430624C04F1100654F8043B284623
:1082E00003B19847A642F8D15E495F4800243C603C
:1082F00001F06AFA5D48012101F02EFB00287FF4AD
:1083000078AF0BB0BDE8F08F04238DF81430F388FC
:10831000ADF82030DEE703238DF81430F388ADF894
:1083200020303389ADF82230F3680793D2E7022377
:108330008DF814303389ADF82030B388ADF8223091
:10834000F3680793B37DA3F10603B3FA83F35B09E4
:108350008DF82430BEE701238DF814303389ADF851
:108360002030B388ADF82230F3680793B2E73D4977
:108370003D4801F0F7F9064638603EE74FF4064401
:1083800005AD0023C5E90033C5E902332B6152E78F
:10839000324D2B78022B00F07C832B7D022B00F0DA
:1083A0008883334B01221A7000225A6005AD0024E5
:1083B0000594C5E902442C613DE72E4A2E4802216E
:1083C0000023337191801168012201F0AFFF002872
:1083D00097D03E68264A05AD002305935360C5E952
:1083E00002332B6148F20D6425E79CF80030072B1F
:1083F00000F2A282DFE813F0B602A002A002D102CE
:10840000ED02F300F3009A021A4C1C4B21681A4843
:108410000022327100925D8805EB85030F4D05F84F
:10842000232005EB8305A3882B816B68236002233F
:10843000A380134A6960082301F0E6FEC7E7012321
:108440000C493371002309680E4A00930A48082337
:1084500001F0DAFEBBE700BFD03E0020D43E002092
:10846000A03E0020C83E0020883F0020983F00200A
:10847000B03E00209C3F0020D4370020B83E0020B2
:10848000FC85030004860300324641F61D5409EBC7
:108490000A0105EB8101F3880889033303440B814A
:1084A000D144F38805EB89051646C3F57F436A89F5
:1084B000FD3313446B8105AD41F61D5200239442F8
:1084C000059308BF1C46C5E902332B613FF4B3AEE8
:1084D000C0E2A54BA54A5968A54BA6481C880623AF
:1084E000B37500230093042301F08EFE10BB04EB50
:1084F000840305EB830501232B740BB0BDE8F08FDB
:108500009948B3699A4903604FF0000BC0F804B072
:10851000FFF7F6FD002800F0AF820223B3750423B5
:108520009448CDF800B02146F21801F06DFE002805
:108530003FF4E7AEB37D3A68022B48F20D64AFD941
:10854000A5E7032A0CBF05230623B3750023009378
:108550008848211D042306F1080201F055FE002879
:10856000E8D10BB0BDE8F08F0223B3750023009370
:10857000042380482146F21801F046FE0028D9D194
:108580000BB0BDE8F08FF38832690120B075002090
:10859000009004F10C0177489B0001F035FE0028A3
:1085A000C8D10BB0BDE8F08F33697248002B14BFFF
:1085B00003230123B3750023009304F1080104236E
:1085C00006F10C0201F020FE00283FF49AAEB37DC4
:1085D0003A68022B48F20D647FF662AF57E7664AAD
:1085E00064481168002307228CF800200093634A36
:1085F000CCF80430082301F007FE0446002C3FF4B9
:1086000080AE3E6857E7BCF802305D4D03EB830354
:1086100005EB8305EB68002B54D1696855480422AB
:108620008CF80020012201F081FE0446E6E7DCF828
:1086300004205148538884880168033301EB840186
:10864000002003249BB200909B008CF80040494816
:1086500001F0DAFD0446D1E701200346ACF8023010
:1086600000EB800305EB8303DCF8042059684FEA34
:10867000800E01F58056002A00F01D8253880333D6
:1086800002EB8302964217D91368013314D0538842
:10869000033302EB83039E420ED39488444505D0F6
:1086A00014881CB19468013440F001819E4203D9C2
:1086B0001A4613680133EAD1704405EB8005EB6874
:1086C000002BABD02C4A2B480523022191808CF83B
:1086D000003011680023012201F028FE04468DE7D6
:1086E00005AD0023059348F20E64C5E902332B6102
:1086F000A1E5244B00225A604FF4064405AD40E644
:10870000B37D1F4D022B08D90AEB8A0205EB8202CA
:10871000F388118903330B4413814FEA8A09D1444A
:10872000F38805EB8905C3F57F436A89FD3313445C
:108730006B8105AD002305934FF40644C5E9023370
:108740002B6178E502233371CDE9064405ADF3686A
:1087500005930DF112012846FFF7D2FC002840F0E6
:108760004D8148F209640CE6943E0020F885030030
:10877000A83F0020D43700209C3F0020048603003F
:10878000D43E0020B03E0020B44B1B78002B00F0FC
:108790005581DFF8D0E2BEF80490B9F1010F11D88D
:1087A000AF4D039409EB890205EB8202137883B184
:1087B00009F101091FFA89F3012BAEF8049002F1C7
:1087C0001402F3D9A748082200210EF093FB3E685B
:1087D000ECE55368DEF8001003F5805C03F1080A4D
:1087E000002900F029814B88033301EB83018C457C
:1087F00006D8039BCEF80030DAE79C45F9D9194634
:108800000B680133F5D04B88033301EB83039C45A0
:10881000EFD38C884445F0D0B1F800B0BBF1000F25
:10882000EBD088680130E8D0F388CEF80010A3427E
:10883000D6D1002300938C4A8C48042301F0E4FC39
:10884000002840F03B8109EB890905EB89050123EC
:108850002B7456E5BCF80200814DDCF8042000EBD7
:10886000800305EB83034FEA800E596801F58056BB
:10887000002A40F0A98001F10802B242BFF41CAF07
:10888000136801333FF418AF5388033302EB8303BB
:10889000B3423FF611AF9488444500F0C880148875
:1088A000002C00F0C4809468013400F0C080CCF843
:1088B0000420BEE6BCF80220694D9300134405EB8A
:1088C0008305062400236968694A009367488CF889
:1088D0000040082301F098FC04468FE69CF80A301B
:1088E0004BB15F4DE86800238CF80A3018B92B7C37
:1088F000002B40F0E8809CF80B3053B1584D00231A
:108900008CF80B302B6A23B995F82430002B7FF4B8
:10891000A3AE05AD002305938CF80030C5E9023302
:10892000ACF80230CCF804302B6184E401238CF8DD
:1089300000309CF80A30D3E7013B062B3FF6D0AE5F
:1089400001A252F823F000BFDD8802005588020022
:108950002F86020007860200E1860200B588020029
:10896000DF8502003E4DBCF808302A7D0133ACF8AB
:108970000830B2FA82F22B785209B3FA83F38CF8FA
:108980000B2000225B09ACF802208CF80C2001229D
:108990008CF80A308CF80020A2E7BCF80200304DB9
:1089A000344CDCF8042000EB800305EB830356888D
:1089B0005968A38803333344A38002238CF8003022
:1089C00000FA03FE01F580565388033302EB83025D
:1089D00053E7BCF80220224D264902EB820305EB47
:1089E00083038888188158680C6808600220888092
:1089F00000215C60197402FA00F35FE706991A4AD5
:108A00008B88F3800B883381184800940423BDF8C9
:108A1000124001F0F9FB002837D1114B04EB84041C
:108A200003EB8404012323740BB0BDE8F08FB34241
:108A3000BFF442AE1A4623E75146D8E605AD2146BB
:108A4000084808220EF056FA0594C5E902442C6144
:108A500048F201643E68FFF7EEBB00BFB03E002065
:108A6000D43E0020AC3F0020F8850300D43700201E
:108A7000FC8503009C3F002005AD059048F2096489
:108A8000C5E902002861FFF7D6BB3E6848F20D64D5
:108A900077E4002303EB830305EB83020D48516861
:108AA000002205F82320009208230B4A01F0ACFBBA
:108AB0008DE40123EEE701F10802E3E53E6848F2A8
:108AC0000D6405AD5DE40346C8E5324648F20E6428
:108AD000DDE400BFD4370020FC8503004068FFF7C9
:108AE00081BB00BF094A116804290BD038B5084C76
:108AF000156803460121104644F8253000F020FF98
:108B0000002038BD48F20B60704700BFA43F002032
:108B1000A03E00202DE9F04F974D89B02A78002320
:108B2000CDE90333CDE90533079372B1934C04F1DA
:108B3000100554F8043B03A803B19847A542F8D1A7
:108B40000024204609B0BDE8F08F281D02F0FF0880
:108B500000F00EFF0028F3D1D8F8F83F5C1C42D09B
:108B60004FF0805211695269DFF838928449C9F890
:108B700010300022A3F540534846C9F80C3001F0EC
:108B80000BFB04460028DCD17E497F48DFF818A2A1
:108B90001C238C2200F06AFD26464FF0030B27466B
:108BA000D9F80C30F018F35800F0DD80774A934282
:108BB00025D14368764A934273D00132934220D143
:108BC000B8F1000F40F09680724B73491860002294
:108BD0000193FFF737FA019B9B88022B0CBF0423FC
:108BE00008231C4326E04FF010234FF080525B69AE
:108BF00011695269581C08BF02FB01F3B4E7013345
:108C00000AD1031D00F5805101E099425FD01A6836
:108C1000013203F10403F8D007EB87030AEB830268
:108C20000BF1FF3B5060032201370AF823201FFAA3
:108C30008BFBBFB206F58056B6F5405FB0D1BBF1F5
:108C4000010F40F28A80E4B2062C0ED14B4C012277
:108C500000232A706B6004F1100554F8043B03A84C
:108C600003B19847A542F8D16AE702D814F0FD0F86
:108C700073D002A9444800F033FD1C2205460021B0
:108C80000EF038F9002D62D00123013C2B700A2C24
:108C900048D8DFE804F04547454759475947565FEC
:108CA000560007EB87030AEB83029900506001F13D
:108CB000100208314FF0000C5244514401370AF8B9
:108CC00023C044F00204FFF7BDF9BFB2B2E7314B55
:108CD0001A68FAB1314A07EB87010AEB8103578022
:108CE000022201370AF821205860BFB21A8144F0ED
:108CF00001049FE707EB870C0AEB8C020221254B4E
:108D00000AF82C10118125494F80196851600137EC
:108D1000BFB25AE7022218609A804FF00108E6E7D6
:108D200000232B7102A9184800F00CFD1C480121FA
:108D300000F0FAFD044600287FF402AFFFF752FA74
:108D4000FFE603232B71EDE701232B71EAE748F2DD
:108D50000764F6E602232B71E4E700232B7048F248
:108D60000A646B60EDE65A1C3FF44BAF074A93422E
:108D70003FF447AF50E700BFB03E0020A03E0020C8
:108D800018880300FC3E0020883F0020DEC0ADDED6
:108D9000FE011EF19C3F0020A03F0020B83E0020B5
:108DA000983F0020D4370020D43E002030B370B567
:108DB0000D4682B0F1B10DF106010446FFF7A0F9AE
:108DC00018B948F2096002B070BDBDF806000D4B3D
:108DD000666800EB800003EB800001210C3000F09E
:108DE000AFFD2E60636801220C3300206B60A2721D
:108DF00002B070BD48F2046002B070BD48F2046079
:108E0000704700BFD43E002010B310B582B00DF102
:108E100006010446FFF774F9B0B1BDF806300E4AFA
:108E200003EB830302EB8303DA684AB1A27A3AB117
:108E3000DA680021013A0846DA60A17202B010BD7A
:108E400048F2056002B010BD48F2096002B010BDE2
:108E500048F20460704700BFD43E00202DE9F0477F
:108E6000514B1B7882B083B30C46002945D00A8849
:108E70004FF6FF739A4222D04B8803B34D6815F02A
:108E8000030534D1B1F8089009F103039BB240F215
:108E9000FE32934234D8454A1178074639B9508991
:108EA00011890144194489B2B1F5806F2BD9117D24
:108EB00089B148F20665284602B0BDE8F08748F25D
:108EC0000365284602B0BDE8F08748F201652846F0
:108ED00002B0BDE8F087D08B918B0144194489B270
:108EE000B1F5806FE5D84FF00108C2460DE048F2B9
:108EF0000265284602B0BDE8F08748F20465DAE76B
:108F000048F20865D7E7A846AA460AEB8A0A02EBA8
:108F10008A0A034401A92648AAF80A3000F0E0FBB7
:108F20001C22064600210DF0E5FF002E2FD0A6F8EA
:108F3000148002234FF0000886F8168033706368AF
:108F4000336101211B4800F0FBFCF0602388338172
:108F500063881748B38001A9A6F80690A6F80A808E
:108F600000F0F0FB47B1C7F80480F268124B3A609A
:108F70001B8987F80A803B811048012100F0D4FC4E
:108F80000446002897D1FFF72DF9254693E7BAF854
:108F90000A30C9F57F4909F1FD099944AAF80A90F8
:108FA00048F2076587E700BFB03E0020D43E0020AE
:108FB000883F0020CC3E0020B83E0020983F002093
:108FC0002DE9F04782B068B3524B1B78002B41D09B
:108FD0000C4639B30A884FF6FF739A4234D04B8857
:108FE00093B34E6816F003063AD1B1F808A00AF11F
:108FF00003039BB240F2FE32934234D8464A1178C2
:10900000054639B9518910890844184480B2B0F531
:10901000806F2BD9117D59B148F20666304602B0F7
:10902000BDE8F08748F20466304602B0BDE8F0873C
:10903000D18B908B0844184480B2B0F5806FEBD888
:109040004FF00109C84613E048F20366304602B00B
:10905000BDE8F08748F20166304602B0BDE8F0870F
:1090600048F20266DAE748F20866D7E7B146B0464A
:1090700008EB880802EB88080B442848A8F80A3057
:1090800001A900F02DFB1C22074600210DF032FF44
:10909000002F32D04FF000080323A7F8149087F870
:1090A00016803B7063683B6101211D4800F048FC5D
:1090B000F86023883B816388BB800423A7F806A05F
:1090C000BB752B68BB6101A91448A7F80A8000F0A2
:1090D00039FBC5F80480FA68124B2A601B891248D4
:1090E00085F80A802B81012100F01EFC044600282F
:1090F00094D1FFF777F8264690E7B8F80A30CAF51A
:109100007F4A0AF1FD0A9A44A8F80AA048F20766C5
:1091100084E700BFB03E0020D43E0020883F0020FE
:10912000CC3E0020B83E0020983F002070B51D4B7B
:109130001B7882B00BB34FF6FF739842044626D0DB
:1091400001A9194800F0CCFA1C22054600210DF0B7
:10915000D1FEBDB1052301262B70EC8001A9124878
:109160002E7100F0EFFA1148314600F0DDFB0446A5
:1091700090B10024204602B070BD48F20164204640
:1091800002B070BD48F20764204602B070BD48F2DC
:109190000364204602B070BDFFF724F8204602B0F9
:1091A00070BD00BFB03E0020883F0020983F0020E7
:1091B00010B5194B1B7882B0F3B101A9174800F024
:1091C0008FFA1C22044600210DF094FEF4B1062310
:1091D0002370124801A900F0B5FA114B1A780AB1B0
:1091E00001221A730F48012100F09EFB044640B192
:1091F0000024204602B010BD48F20164204602B0AF
:1092000010BDFEF7EFFF204602B010BD48F2076424
:10921000204602B010BD00BFB03E0020883F0020B5
:10922000B83E0020983F00202DE9F047374C2478C5
:10923000002C5FD0002A61D0002B5FD09C88012CCD
:1092400060D8334D661C04EB840405EB84058A4624
:109250002C78B6B24FF6FF774FF0000844B1022EDB
:109260009E8005F114054DD02C780226002CF6D1F5
:109270001C68D5F804C00CF5805E002C37D0B4F81B
:1092800002C00CF1030C04EB8C04744505D3C3F845
:109290000080E4E7E645FAD9644621680131F6D05A
:1092A000B4F802C00CF1030C04EB8C0CE645EED3D1
:1092B000B4F80490B945EDD0B4F80090B9F1000FBE
:1092C000E8D0A1680131E5D01C60B4F804C0844541
:1092D000CFD1B4F800C0D445CBD1A16811601968D2
:1092E0000C4B51601B8913810020BDE8F0870CF105
:1092F0000804CAE748F20160BDE8F08748F204605C
:10930000BDE8F08748F20960EFE700BFB03E0020FB
:10931000D43E0020B83E0020364B1B78002B60D096
:10932000002961D0002A5FD02DE9F043B2F804E0B3
:10933000BEF1010F5BD8304B0EF101050EEB8E0E26
:1093400003EB8E0EADB29EF800304FF6FF764FF075
:1093500000094BB1022D95800EF1140E47D09EF8F6
:1093600000300225002BF5D11368DEF804C00CF59F
:109370008054002B32D0B3F802C00CF1030C03EB85
:109380008C03A34205D3C2F80090E3E76445FAD901
:1093900063461F680137F6D0B3F802C00CF1030C26
:1093A00003EB8C0C6445EED3B3F80480B045EDD0EC
:1093B000B3F80080B8F1000FE8D09F680137E5D01E
:1093C00013601C888442D0D19B680B6012680B4BE1
:1093D0004A601B890B810020BDE8F0830CF1080373
:1093E000CFE748F20160704748F20460704748F2E6
:1093F0000960F1E7B03E0020D43E0020B83E0020D6
:10940000364B1B78002B60D0002961D0002A5FD03A
:109410002DE9F043B2F804E0BEF1010F5BD8304B08
:109420000EF101050EEB8E0E03EB8E0EADB29EF823
:1094300000304FF6FF764FF000094BB1022D9580BA
:109440000EF1140E47D09EF800300225002BF5D106
:109450001368DEF804C00CF58054002B32D0B3F84A
:1094600002C00CF1030C03EB8C03A34205D3C2F83A
:109470000090E3E76445FAD963461F680137F6D0E8
:10948000B3F802C00CF1030C03EB8C0C6445EED373
:10949000B3F80480B045EDD0B3F80080B8F1000F08
:1094A000E8D09F680137E5D013609C888442D0D112
:1094B0009B680B6012680B4B4A601B890B81002074
:1094C000BDE8F0830CF10803CFE748F20160704774
:1094D00048F20460704748F20960F1E7B03E0020AE
:1094E000D43E0020B83E002020B119B103680B60C3
:1094F0000020704748F20460704700BF2DE9F84F24
:10950000574B1B78002B00F0A3800446002800F086
:10951000A380122200210DF0EDFCDFF84C81608861
:109520002189B4F80AC0A7894E4A03232380002565
:109530004FF6FF7E5389B2F80890994453681FFA9A
:1095400089F9002B56D01E68464553D15B6803F15C
:109550006E6303F5FF330233012B4BD8414ECC44ED
:10956000C9F5806305EB850906EB89099BB2D9F83B
:109570000C90484480B26080B2F80A904944BB42E3
:109580001FFA8CFC89B288BFA3812181A4F80AC08C
:10959000D2F8049088BF1F4609F1080309F58059E5
:1095A0001E68013621D0B3F802A00AF1030A03EBCA
:1095B0008A0AD14538D3B3F804A0F2451ED0B3F8D7
:1095C00000A0BAF1000F19D09E68013616D0B4F889
:1095D00004A00AF1010AA4F804A0B3F802A00AF159
:1095E000030A03EB8A039945DAD8143275B30020D5
:1095F000BDE8F88F2388013B2380AFE7B4F806B0BD
:10960000B4F80EA00BF1010BA4F806B0B3F802B049
:109610000AF1030ADA44A4F80EA0B3F802A00AF192
:10962000030A03EB8A03DEE7A9EB03094FF001030A
:10963000B4F806A02374E3890AF1010A03EBA90335
:10964000A4F806A0E3811432002DD0D1012571E7E2
:1096500048F20160BDE8F88F48F20460BDE8F88F79
:10966000B03E0020D43E0020DEC0ADDE99B110B483
:10967000B2FBF3F403FB1424A4B244B9C0E9001410
:1096800084608281C38120465DF8044B70470920C5
:109690005DF8044B70470E20704700BF82B050E861
:1096A000022FC188B2EB324F4FF0000317BF92B2C6
:1096B00041EA014142EA014104E04268B2EB324F23
:1096C00008BF012340E80212002AE8D18DF80730D4
:1096D0009DF80730002B0CBF1120002002B070470E
:1096E00010B483B050E8013F1FFA83FCC489A4443E
:1096F0008489A44528BFACEB040C0489A44502BFAF
:10970000BFF32F8F002207E0CCEA030C40E801C42E
:10971000002CE7D14FF001028DF803200193019C4A
:109720009DF803200C6032B1006810FA84F003B099
:109730005DF8044B704702F0FF03184603B05DF874
:10974000044B70470A884B889A4201D0002070472A
:1097500050E8012FC2EA024240E80123002BF7D172
:109760000120704710B483B050E8023F1FFAA3FCF9
:10977000C488A44502BFBFF32F8F00220EE0C48926
:10978000A4448489A44528BFACEB040CC3EA0C4C68
:1097900040E802C4002CE7D14FF001028DF803200D
:1097A0000193019C9DF803200C6032B1006800EB2E
:1097B000144003B05DF8044B704702F0FF031846F5
:1097C00003B05DF8044B70470A884B889A4201D079
:1097D0000020704750E8022FC2EA224240E80223EC
:1097E000002BF7D1012070474B0901F01F024FF009
:1097F000010C0CFA02F100EB830000F07DB800BF11
:109800004B0910B501F01F040121A14000EB8300BA
:1098100000F066F8E04000F0010010BD01F01F020A
:10982000012303FA02F24B0900EB8300D14300F05D
:109830006FB800BF4B0901F01F0150F82300C8406A
:1098400000F00100704700BF2DE9F04F01F1FF3B30
:1098500083B04FEA5B130F460546019300264FF095
:10986000010A55F8264005EB8608E44394FAA4F46F
:10987000FCB1B4FA84F404EB46144FEA4619A7424B
:1098800017D904F01F0360090AFA03F105EB800001
:109890009B4600F025F820FA0BF0C30711D5D8F845
:1098A0000030DB4393FAA3F3B3FA83F44C44002B68
:1098B000E5D1019AB24206F1010301D01E46D0E77C
:1098C0003C46204603B0BDE8F08F00BF034653E896
:1098D000000F0A4643E8002C9CF0000FF7D17047B8
:1098E000034653E8000F40EA010243E8002C9CF0D5
:1098F000000FF6D1704700BF034653E8002F42EA3D
:10990000010043E8000C9CF0000FF6D1704700BF47
:10991000034653E8002F02EA010043E8000C9CF0E4
:10992000000FF6D1704700BF034653E8000F00EB6D
:10993000010243E8002C9CF0000FF6D1704700BFF5
:10994000034653E8002F02EB010043E8000C9CF0B3
:10995000000FF6D1704700BF034653E8002FA2EB7B
:10996000010043E8000C9CF0000FF6D1704700BFE7
:109970000346012253E8000F40EA020143E8001CBD
:109980009CF0000FF6D170470346012253E8001FF8
:1099900041EA020043E8000C9CF0000FF6D170474A
:1099A0000346002253E8000F00EA020143E8001CCE
:1099B0009CF0000FF6D17047D0B110B4D0E901127D
:1099C000521A0468D2B2531E2160DBB252B1016850
:1099D0000A6803F1FF3C541C0C6013705FFA8CF3AF
:1099E000FF2BF4D10368002018715DF8044B704719
:1099F0000E20704730B583B0044600250DF10700F6
:109A00008DF80750FEF778F9D4E900311A688A42D8
:109A100010D9511E19602168A3680D6812F8012C35
:109A2000208A5B1BE56800FB02550A79DBB29A428B
:109A300038BF0B719DF80700FEF784F9284603B084
:109A400030BD00BF30B5054683B00DF107000023DF
:109A50000C468DF80730FEF74FF92A681368591C39
:109A60001160E9682A8A641AB4FBF2F41C709DF84C
:109A70000700FEF767F903B030BD00BF826842B14E
:109A800010B5044643690168006998470023A36044
:109A900010BD70470EB400B582B0039921B104AB7C
:109AA00001AA019300F0B6F802B05DF804EB03B030
:109AB000704700BF2DE9F04F154683B0A942DDF88D
:109AC00030900D9A0F4606469A46C0F09E800B468F
:109AD0004FF00108B3FBF5F39D4208F10108F9D9F5
:109AE000D04538BFD04612F00103019302D1B9F13D
:109AF000000F67D1B268BAF1010F4FF0010406D927
:109B00000AF1FF3ABAF1010F05FB04F4F8D8B7FBEC
:109B1000F4F39D4205D805FB04F4B7FBF4F39D4232
:109B2000F9D9DFF8ECA007E0AC42B4FBF5F31AD3A7
:109B3000B2681C46B7FBF3F31AF803B0BBF10A0F87
:109B400004FB137728D03368511CB16003F802B0CE
:109B5000D6E901329A42E7D33046FFF78FFFB4FBD4
:109B6000F5F3AC42E4D2019B9BB1B9F1000F10D0E8
:109B70002024C84509F1FF390BD2B3683268591C5B
:109B8000B160D454D6E901329A4214D2B9F1000F2F
:109B9000EFD103B0BDE8F08F511C3368B1604FF0D6
:109BA0000D019954D6E901329A42CCD33046FFF7E1
:109BB00065FFB268C7E73046FFF760FFB9F1000FF5
:109BC000D7D1E6E793071AD42024B268C84502F13A
:109BD000010190D23368B1609C54D6E901329A42B7
:109BE00009F1FF3903D2B9F1000FEFD183E7304615
:109BF000FFF744FFB268B9F1000FE7D17BE7BAF194
:109C0000000F0CBF30242024DFE74FF0010867E786
:109C10000C860300002900F05C822DE9F04FDFF88C
:109C200070950D7885B0064690460C464FF00D0AAB
:109C30000FE00A2DB36800F08E803268591CB160C5
:109C4000D554D6E901329A4280F081802578002DE2
:109C500069D00134002D66D0252DEAD10027234696
:109C600014F8012B2D2A6CD0302A6DD02B2A61D00C
:109C70002A2A7FD0A2F1300109294FF000050BD824
:109C800005EB850502EB450513F8012FA2F1300124
:109C90000929A5F13005F3D92E2A1C4675D00023D9
:109CA00001E014F8012F02F0FB016829F9D0252A00
:109CB00000F08681583AD1B2202930D8202A2ED8F7
:109CC000DFE812F021002D002D002D002D002D00C9
:109CD0002D002D002D002D002D00FE0079002D00FF
:109CE0002D002D002D0079002D002D002D002D00C0
:109CF0002D002D00BD002D002D001A012D00160194
:109D00002D002D002100D8F800101022081DC8F8E1
:109D1000000009683046CDE90057FFF7CBFE01345B
:109D20002578002D95D1337B002B40F0438105B081
:109D3000BDE8F08F234614F8012B2D2A47F00407C5
:109D400092D147F001078AE747F0020787E73046DC
:109D5000FFF794FE7AE73268591CB16002F803A05D
:109D6000D6E901239342FFF468AF3046FFF786FE41
:109D7000B36862E7D8F80020111DC8F80010156814
:109D80005A782E2A03F1010489D16278A2F13003B6
:109D9000092B04F101044FF0000384D803EB830383
:109DA00002EB430314F8012FA2F130010929A3F1BA
:109DB0003003F3D977E7D8F80020111DC8F8001058
:109DC000D2F800B08BEAEB72A2EBEB72092A40F3F7
:109DD000DB81DFF8C0C3012011466329ACFB02E23E
:109DE00000F101004FEAD202F6DC9842024638BF89
:109DF0001A460292002D00F01E81BBF1000FC0F246
:109E00002E817A0700F12B81B80740F12A81002BBF
:109E100040F02781BBF1000FC0F27D817A0700F18D
:109E20008D8107F00302022A00F05D81CDE9005721
:109E300059460A223046FFF73DFE013470E7D8F854
:109E400000301A1DC8F800201F68B3683268581C1B
:109E50003021B060D154D6E90123934280F0FA80DA
:109E6000591C3268B1607821D154D6E901329A4246
:109E700080F0EB800F2F03D93B461B090F2BFCD83A
:109E80004FF0805506E00F2D4FEA15137FF647AFD0
:109E9000B2681D46B7FBF5F319F803B0BBF10A0F22
:109EA00005FB137777D03368511CB16003F802B01B
:109EB000D6E901329A42E6D33046FFF7DFFDE2E70A
:109EC000D8F800301A1DC8F800201D78B3680A2D94
:109ED00000F03A813268591CB160D554D6E901329C
:109EE0009A42FFF41CAF3046FFF7C8FD013417E774
:109EF000D8F800100A2209E7D8F800301A1DC8F86F
:109F0000002017F00107D3F800B064D1BBF1000FB7
:109F100003D058460DF032F80746BD4215D920222D
:109F200001E0BD4211D0B1683368481CB0605A549A
:109F3000D6E90130984205F1FF35F2D33046FFF7FC
:109F40009DFDBD424FF02002EDD19BF80050002D49
:109F50003FF4E5AE0A2DB0680FD03368421CB26002
:109F60001D54D6E90130984280F0B4801BF8015F9F
:109F7000002D3FF4D4AE0A2DEFD13368421CB260FD
:109F800003F800A0D6E901309842E6D33046FFF747
:109F900075FDB068E1E73368511CB16003F802A0B9
:109FA000D6E901329A42FFF47EAF3046FFF766FDF4
:109FB000B26878E7304605B0BDE8F04FFFF75EBD08
:109FC000B3683168581CB060CA54D6E901329A426D
:109FD00089D20134A4E69BF80030002B00F0D68033
:109FE000B0685F46CBF101020A2B02EB070B5ED093
:109FF000411CB16031680B54D6E90130984248D217
:10A0000017F8013F002BEFD15D457FF688AE202782
:10A0100002E05D453FF483AEB2683368511CB16025
:10A020009F54D6E901329A4205F1FF35F1D330460B
:10A03000FFF724FDEDE7B80705D5002B3FF4EAAEA6
:10A04000F9073FF5E7AE0025E4E63046FFF716FDD9
:10A05000B2680FE73046FFF711FDB36800E7013D36
:10A06000D2E6F9073FF5D6AE002DECD020220299BA
:10A07000A942BFF4CFAEB168481CB060306842540A
:10A08000D6E90101814205F1FF356CD2002DEED1F8
:10A09000D9E730460292FFF7F1FC17F8013F002B99
:10A0A000B2D0029AB0680A2B02EB070BA0D1411C78
:10A0B000B160316801F800A0D6E90110884297D359
:10A0C0003046CDE90232FFF7D9FCDDE90232B06853
:10A0D0008EE770473046FFF7D1FC1BF8015F002D7B
:10A0E0007FF438AF1BE6002B7FF4A0AE8DB1302299
:10A0F00002998D427FF69AAEB168481CB060306814
:10A100004254D6E90101814205F1FF3535D2002DD7
:10A11000EED100258AE6B1683268481CB060CBF108
:10A12000000B2D205054D6E901219142FFF479AE65
:10A1300030460393FFF7A2FC039B72E6B1683268D6
:10A14000481CB0602B20EDE73268591CB16002F862
:10A1500003A0D6E901239342FFF4BCAE3046FFF7DB
:10A160008DFCB368B6E630460393FFF787FC039B8C
:10A170002022002D7FF47BAF65E730460393FFF785
:10A180007DFC039B3022C2E701202EE69B463BE785
:10A190000C860300CDCCCCCC10B582B038B1B9B1AF
:10A1A00001600B68114602B0BDE810401847104B23
:10A1B0001048114A1149C01AC0080E240004104B5F
:10A1C000009440F00100FCF7BDFB0E2002B010BD72
:10A1D000074B08480B4A0949C01AC0080E2400045E
:10A1E000074B009440F00100FCF7ACFBEDE700BF2B
:10A1F000A4BF03001CC003001C86030024860300C8
:10A20000F8870300508603002DE9F04182B0002852
:10A2100059D01546002A5FD00768002F65D01C462C
:10A220006BB34668D6F80480B3FBF8F608FB163625
:10A2300076BB11F0030F34D1AD073BD1C568A942FD
:10A2400011D22E4B2E482F4AC01A1024C0082E4B74
:10A25000A0402E49009440F00100FCF773FB20461B
:10A2600002B0BDE8F081056901F1FF3E7444AC42E3
:10A27000E7D8FC68A44602B0BDE8F04160471F4B38
:10A280001F48234AC01AC0081F4B09240004E0E7F6
:10A290001A4B1B481F4AC01AC0081B4B0924000454
:10A2A000D7E7164B16481C4AC01A1024C008164B94
:10A2B000A040CEE7114B1248184AC01A1024C0081B
:10A2C000114BA040C5E70D4B0D48154AC01AC008F8
:10A2D0000D4B0E240004BCE7084B0948114AC01A74
:10A2E000C008094B0E240004B3E7044B04480E4A8F
:10A2F000C01AC008044B08240004AAE7A4BF030046
:10A300001CC0030020870300E487030024860300A9
:10A310006C860300B8860300E4860300FC86030015
:10A320001C860300B086030058860300F0B583B096
:10A3300000283AD00668002E40D022B3446827682F
:10A340007C1E0C4228D1C468A14210D2204B214867
:10A35000214AC01A1024C008204BA0402049009474
:10A3600040F00100FCF7EEFA204603B0F0BD4C1EB1
:10A3700007FB024E0469A645E8D83469A44603B039
:10A38000BDE8F0406047124B1248164AC01AC00898
:10A39000124B09240004E1E70D4B0E48124AC01A83
:10A3A0001024C0080D4BA040D8E7094B09480F4ABC
:10A3B000C01AC008094B0E240004CFE7044B05481F
:10A3C0000B4AC01AC008054B08240004C6E700BFAA
:10A3D000A4BF03001CC0030070870300D0870300E4
:10A3E000248603006C860300488703001C86030054
:10A3F0005886030029DF704728DF704708467047FA
:10A4000000207047024B187A003818BF01207047AF
:10A4100050400020034B187A0122B0FA80F05A74A1
:10A42000400970475040002008B510461A460CF00D
:10A4300053FD002008BD00BF08B5142200210448C8
:10A440000CF058FD0348FFF729F9002008BD00BFB4
:10A45000504000204040002010B50A4C0A4B436099
:10A460002046FFF785FA08B1002010BD0AF088FCED
:10A4700002462274054906481C238C22FFF7F6F891
:10A48000002010BD504000200C880300B43F002085
:10A490004040002030B53B4D2B7A87B0002B3AD09E
:10A4A000394B1C6802232B722379002B3ED0012BE1
:10A4B00025D022689368C3B10023CDE9023300930D
:10A4C000049303230193A36805932379002B4BD0B6
:10A4D000012B07D102238DF80030E36861690491F4
:10A4E0001B0302939368684698472849284800232D
:10A4F0002B726B6007B0BDE83040FFF765B9D4E957
:10A5000003031844FFF778FF20B31128D1D10123AA
:10A510002B7207B030BD1D491D48FFF723F91A4BB8
:10A52000044618600028BDD16860F2E7D4E905232D
:10A53000D21AB2F5805F28BF4FF480529208E168CA
:10A540002069012A38BF012219441844FFF752FF3D
:10A550000028DAD12B7C002BDBD10146022007B08A
:10A56000BDE8304000F016B801238DF800302369B3
:10A570000293E1686369CDE90313684693689847DD
:10A58000B3E700BF50400020684000206440002036
:10A5900040400020831E012B42D810B5354C237A51
:10A5A00086B0002B3AD0022B31D103283ED0324B5B
:10A5B00000221B68E2601A79002A44D0012A26D1C1
:10A5C000D3E9042101328A421A6120D1002020728D
:10A5D00019688A68BAB10022CDE902220092049279
:10A5E0009A68019005921A79002A39D0012A07D178
:10A5F00002228DF80020DA68586904901203029252
:10A600008B68684698471D491D48FFF7DDF8637C55
:10A610003BB906B0BDE81040FFF73CBF06B010BD27
:10A62000704706B0BDE810400AF09ABBE3680133FA
:10A63000082B01D8E360EAE70F4B00221B68E260B9
:10A6400022720D20C4E7D3E90512881AB0F5805FA5
:10A6500094BF121802F5805291429A61D7D1B5E7A2
:10A6600001228DF800201A690292DA685B69CDE94F
:10A670000323C5E7504000206840002064400020CC
:10A68000404000202DE9F04184B007468846184834
:10A6900003A916461D46FFF723F820B304461C22E3
:10A6A00000210CF027FC0A9B27606561114F1048C0
:10A6B000A360002503A9C4F81080E6602571FFF7A8
:10A6C00041F8381DFFF754F918B1284604B0BDE829
:10A6D000F0817B7C002BF9D10190FFF7DBFE019824
:10A6E00004B0BDE8F081042004B0BDE8F08100BFF3
:10A6F00040400020504000202DE9F04184B08046C9
:10A700000D46174803A916461F46FEF7E9FF18B382
:10A7100004461C2200210CF0EDFB2D0BA760012349
:10A72000104F0F48C4F8008003A9E56066612371EB
:10A73000FFF708F8381DFFF71BF918B1002004B027
:10A74000BDE8F0817B7C002BF9D10190FFF7A2FEE0
:10A75000019804B0BDE8F081042004B0BDE8F081A8
:10A76000404000205040002000F0FD03012B00D0AD
:10A77000704730B53D4DA0F10100B0FA80F02B7A62
:10A780000022400987B06A742874002B4ED0384BE1
:10A790001C6802232B722379002B52D0012B07D186
:10A7A000D4E903031844FFF727FE58B311281CD03F
:10A7B000226893687BB10023CDE9023300930493B0
:10A7C00003230193A368059323792BB3012B10D0A6
:10A7D0009368684698472749274800232B726B6087
:10A7E00007B0BDE83040FEF7EFBF01232B7207B082
:10A7F00030BD02238DF80030E368616904911B03CA
:10A800000293E5E72B7C002BF1D10146022007B033
:10A81000BDE83040FFF7BEBE01238DF8003023694C
:10A82000E16802936369CDE90313D1E71149124846
:10A83000FEF798FF0E4B044618600028A9D1686007
:10A84000D5E7D4E90523D21AB2F5805F28BF4FF4CB
:10A8500080529208E1682069012A38BF0122194418
:10A860001844FFF7C7FD0028A0D1CBE750400020D7
:10A87000684000206440002040400020FFF79CB862
:10A880002DE9F041058A0331043D4E198046B6FB9F
:10A89000F5F6FFF7AFF8A0B3F6B24FF48073013EC0
:10A8A00004468380C580C0F800802BD00346002575
:10A8B00008E06279AE4202F1010262713860C0F8CC
:10A8C00000801FD040461F46FFF794F8013503462D
:10A8D0000028EED16779791E17D0224601339942BC
:10A8E0001268FBD1D2F800805FB12668002501E034
:10A8F00034463668214640460135FFF7A3F8AF429B
:10A90000F6D800242046BDE8F08120682146FFF7F4
:10A9100099F8F6E701210430FFF712B82DE9F0416C
:10A92000012104460430FFF717F810F0FF0301D0AF
:10A93000BDE8F0816779791E16D02246013399422D
:10A940001268FBD1D2F80080002FF1D026680025D4
:10A9500001E034463668214640460135FFF772F87B
:10A96000AF42F6D8BDE8F08120682146BDE8F0414D
:10A97000FFF768B82DE9F8438846C788417907FB97
:10A9800001F1043902EB030C1E1D6145154638BF69
:10A99000CD1AB7420446B6FBF7F207FB126002D8A5
:10A9A000013A2468FCD13E1AAE4228BF2E469DB122
:10A9B0004FF000090430AD1B324608EB090120447A
:10A9C0000CF08AFAAF42B14424683E464FF00000D2
:10A9D00028BF2E46002DEDD1BDE8F8832DE9F843C0
:10A9E0000446C788407907FB00F0043802EB030CEB
:10A9F0001E1D6045154638BFC51AB7428846B6FBCE
:10AA0000F7F107FB116202D801392468FCD1BE1AA4
:10AA1000AE4228BF2E469DB14FF00009111DAD1B5F
:10AA20003246214408EB09000CF056FAAF42B1441B
:10AA300024683E464FF0000228BF2E46002DEDD17F
:10AA4000BDE8F88333DF704741DF7047064A074BA4
:10AA500010B5002414701C60BFF35F8F04490548D3
:10AA600000F0A0F8204610BD75400020784000207E
:10AA7000448803006C40002000B583B000230DF132
:10AA800007008DF80730FDF737F9F1EE103A23F0A3
:10AA90009F03E1EE103ABFF35F8F0B4B4022C3F8E8
:10AAA00084219DF80700FDF74DF90AF069F928B9EE
:10AAB00020BF40BF20BF03B05DF804FB03B05DF8CA
:10AAC00004EBFFF7C1BF00BF00E100E070B5284E06
:10AAD000044601213046FEF7F9FEBFF35F8FD0B97F
:10AAE000042C40D0234B1A7862BB234D01222C70DA
:10AAF0001A70224C636823B90EE000F05DF86368B9
:10AB000053B11B682878984703462046002BF4D1A0
:10AB1000BFF35F8F336070BDFCF7BAFAFBF7F8FC48
:10AB20000028FBD12B78023B012B0FD90AF028F922
:10AB3000D8B94FF080430122C3F80025BFF34F8FEF
:10AB400020BFFDE7BFF35F8F306070BDBFF34F8F55
:10AB50000B490C4BCA6802F4E0621343CB60BFF3AD
:10AB60004F8F00BFFDE7044DC3E7FFF76BFFE0E742
:10AB70007840002075400020744000206C40002088
:10AB800000ED00E00400FA0582680023936082680B
:10AB90001361826853618268D360826853608268FF
:10ABA0001360704701600B6843604A68934204BFBA
:10ABB00000234360704700BF436843B10268916857
:10ABC0000B4443605268934204BF002343607047C4
:10ABD00070B54468064620680D4618B908E0246838
:10ABE000206828B1B368294698470028F7D1206823
:10ABF0002860256070BD00BF4368186808B102680E
:10AC00001A60704743681868704700BF4368186847
:10AC100018B908E00346006828B18142FAD10A68F1
:10AC20001A600120704770471049A1F5947205E041
:10AC300052F83330984238BF61460CD2A1EB020C77
:10AC40004FEADC7303EBEC035B10914202EBC30CA5
:10AC5000EED80748704702D90CF10802EEE7DCF89D
:10AC60000400034B002808BF18467047848D03007A
:10AC7000488C0300BFF34F8F0549064BCA6802F4A6
:10AC8000E0621343CB60BFF34F8F00BFFDE700BF0F
:10AC900000ED00E00400FA0510B54FF08053D3F842
:10ACA00030315A1C04BF4FF0704393F8E03F062B3D
:10ACB00008D14FF08053C44AD3F82433C3F304239C
:10ACC000C2F840354FF0704393F8E02F062A00F0A9
:10ACD00027814FF08053D3F830315C1C04BF4FF014
:10ACE000704393F8E03F062B09D14FF080534FF0AB
:10ACF0008042D3F84432C3F34233C2F83C354FF0BC
:10AD0000704393F8E02F062A00F0F5804FF080534F
:10AD1000D3F83031581C04BF4FF0704393F8E03F34
:10AD2000062B08D14FF080430022C3F80C21C3F852
:10AD30001021C3F838254FF0704393F8E02F062A0E
:10AD400000F0B6804FF08052D2F83031591C2AD032
:10AD5000062BD2F8342130D09C4AD2F8883043F404
:10AD60007003C2F88830BFF34F8FBFF36F8F4FF07F
:10AD70008053D3F83021062A00F0E3804FF01023EF
:10AD8000D3F80C22D10700F16581D3F80022002A04
:10AD9000C0F23A81D3F80432002BC0F235818C4BDB
:10ADA0008C4A1A6010BD4FF0704292F8E01FD2F842
:10ADB000E82F0629D0D1C2F30312033A042A40F245
:10ADC000DA804FF08053844AD3F80414C2F8201577
:10ADD000D3F80814C2F82415D3F80C14C2F82815B7
:10ADE000D3F81014C2F82C15D3F81414C2F8301587
:10ADF000D3F81814C2F83415D3F81C14C2F840154F
:10AE0000D3F82014C2F84415D3F82414C2F8481516
:10AE1000D3F82814C2F84C15D3F82C14C2F85015E6
:10AE2000D3F83014C2F85415D3F83414C2F86015AE
:10AE3000D3F83814C2F86415D3F83C14C2F8681576
:10AE4000D3F84014C2F86C15D3F84414D3F8303159
:10AE5000C2F870155C1C04BF4FF0704393F8E03FDC
:10AE6000062B7FF479AF4FF080524FF08041D2F83B
:10AE70005832D2F8302103F04F03501CC1F8E43EA1
:10AE80007FD0062A7FF468AFD1F80034DA0700F1EA
:10AE900084804FF08053D3F83431033B042B64D9C2
:10AEA0004E4AD2F83C3743F48063C2F83C3753E74C
:10AEB000D3F8E83FC3F30313033B042B3FF642AF41
:10AEC000474AD25C22B14FF080420321C2F8A0155C
:10AED000444AD35C002B3FF435AF434B052401209B
:10AEE00000213F22C3F81046C3F88806C3F818169D
:10AEF000C3F8142626E7D3F8E83FC3F30313033B54
:10AF0000042B3FF603AF394AD35C002B3FF4FEAE6F
:10AF10002E4AD2F8FC3023F08073C2F8FC30F5E6FC
:10AF2000D3F8E83FC3F30313033B042B3FF6D1AE42
:10AF30002F4AD35C002B3FF4CCAE2E4B2E4A5A67DF
:10AF4000C7E6D3F83431033B042B08D94FF0102265
:10AF50004FF08043D2F80822C3F858250EE7274A5D
:10AF6000D35C002B3FF40AAFF0E7254AD35C002BFB
:10AF70003FF4F2AE94E723498A5C002A3FF46AAFBB
:10AF80001FE74FF0704393F8E03F062B7FF4E4AEE9
:10AF9000D1F80034DB077FF5DFAE4FF080534FF080
:10AFA0008042D3F830316FF00101062BC2F8001453
:10AFB0007FF4D2AE4FF08053D3F83431033B042BEF
:10AFC0003FF66EAFD1E700BF0030014000ED00E07A
:10AFD000983500200090D00300C0004000100040D1
:10AFE0009C8D03009C8D0300005000409C8D03004D
:10AFF0009C8D030000C007400DF0ADBA948D030096
:10B000008C8D0300848D0300214A0123C2F804358E
:10B01000D2F80034002BFBD04FF0102315211C4A2E
:10B02000C3F80012D2F80034002BFBD04FF01023ED
:10B030001521174AC3F80412D2F80034002BFBD0B4
:10B0400000231349C2F80435D1F80034002BFBD09B
:10B05000FFF710FE0E4A0123C2F80435D2F800347F
:10B06000002BFBD04FF01021094AD1F80C3223F00D
:10B070000103C1F80C32D2F80034002BFBD00023BE
:10B080000349C2F80435D1F80034002BFBD0DFE7C8
:10B0900000E001404FF0A042044B1B5CD2F80405D5
:10B0A000D840C04300F00100704700BFA88D0300E6
:10B0B000044A115C01234FF0A0428B40C2F80C35CA
:10B0C000704700BFA88D0300044A115C01234FF0B4
:10B0D000A0428B40C2F80835704700BFA88D03001E
:10B0E0004FF0A04310B44FF480204FF400344FF4DD
:10B0F00000214FF48012C3F80845C3F80805C3F8CF
:10B100000815C3F808255DF8044B70474FF0A043BD
:10B1100010B44FF480204FF400344FF400214FF46A
:10B120008012C3F80C45C3F80C05C3F80C15C3F81E
:10B130000C255DF8044B7047074B4FF0A041185C9D
:10B14000D1F804350122824022EA03001340C1F8FD
:10B150000805C1F80C357047A88D03004FF0A042D8
:10B16000044B1B5CD2F81005D840C04300F001002E
:10B17000704700BFA48D03000D2809D00E2809D008
:10B180000F2809D010280CBF03204FF0FF30704764
:10B19000002070470120704702207047C20710B49A
:10B1A0001AD54FF0A04303224FF40031C3F84427CF
:10B1B0004FF48024C3F84827C3F84C27C3F850271E
:10B1C000C3F808154FF480124FF40021C3F8084566
:10B1D000C3F80815C3F8082583070AD54FF0A04324
:10B1E0000C22C3F83427C3F83827C3F83C27C3F828
:10B1F00040275DF8044B704710B568B90E4CA36842
:10B20000012262703BB1D3E900230020A26098477D
:10B21000A368002BF7D110BD0128FCD1064C23698F
:10B22000A070002BF7D0D3E90023012022619847BA
:10B230002369002BF7D110BD7C40002070B910B5F8
:10B24000074CA368012262703BB1D3E900230020C0
:10B25000A2609847A368002BF7D110BD704700BFCC
:10B260007C40002030B5012883B004D0032821D0D1
:10B27000B0B103B030BD294C00230DF107008DF8AB
:10B280000730FCF739FD23786BB3E3689DF80700BE
:10B2900001221344E360A270FCF754FD03B030BDFB
:10B2A0001F4B0122C3F88020BFF34F8FBFF36F8F76
:10B2B00003B030BD194C00F045F800230DF1070034
:10B2C0008DF80730FCF718FDE368013BE360E368A5
:10B2D0001BB9144BD3F80054C5B19DF80700FCF717
:10B2E00031FD03B030BD10486360A3602361E360AB
:10B2F00000F01CF809F044FD60B10A4A01232370F4
:10B30000D2F80024002AC0D0A370BEE700F02CF8C9
:10B31000A570E2E700F016F8EFE700BF7C400020E0
:10B3200000E100E000000140F9B10200044A137995
:10B3300023B901211060918018467047852070471D
:10B3400090400020074B1A68D20704D4C02283F82B
:10B35000002301221A604FF080430122C3F8182510
:10B36000704700BF00E100E04FF08042022100235F
:10B37000C2F8081382B0C2F80431D2F80431019344
:10B3800001230199D360D2F81834DB03FBD402B057
:10B39000704700BF10B54FF0804382B0D3F8002152
:10B3A00062B10021164AC3F80011D3F80011507998
:10B3B00000910121009CC3F80813A8B14FF080430D
:10B3C000D3F80421CAB10022C3F80421D3F8042120
:10B3D000019202210A4A0198C3F808131368012058
:10B3E00002B0BDE8104018471368517198474FF0FC
:10B3F0008043D3F80421002AE5D102B010BD00BF7C
:10B400009040002030B5254C94F8583083B0002B84
:10B4100040D16FF02F0004F1300304F1500C001BF9
:10B420004FF0FF31C21821FA02F2D20748BF19705B
:10B4300001336345F6D14FF0FF304FF0FF314FF04D
:10B44000FF33C4E900010422002115482365C4E943
:10B450000233C4E90433C4E90633C4E90833C4E958
:10B460000A330BF047FD0F4BC02283F8062340221E
:10B470001A600D4B0020C3F87C01D3F87C210192A7
:10B48000019D4FF00042012184F85810C3F80423B5
:10B4900003B030BD082003B030BD00BF984000208D
:10B4A000EC40002000E100E000600040034B93F816
:10B4B0005800003818BF0120704700BF9840002096
:10B4C00070B5774B03EB000E9EF930C0BCF1000F56
:10B4D00001DB082070BD91F802C01CF0020FCCF314
:10B4E00040055DD11C6A013400F0D2805C6A0134F1
:10B4F00000F0C4804FF00C0E4FF00A0C53F82C40B3
:10B50000013459D00CF10104744547D253F824603A
:10B51000013600F0AB800CF1020474453ED253F8C2
:10B520002460013600F0A2800CF10306764535D286
:10B5300053F8264001343ED00CF1040676452DD256
:10B5400053F82640013436D00CF10506764525D255
:10B5500053F8264001342ED00CF1060676451DD254
:10B5600053F82640013426D00CF10706764515D253
:10B5700053F8264001341ED00CF1080676450DD252
:10B5800053F82640013416D00CF1090CF44505D2CD
:10B59000DC6A013408BF4FF00B0C0DD0042070BDE5
:10B5A0001C68013464D05C6801346ED04FF0080E22
:10B5B0004FF0020CA2E7B44643F82C201A184FFAB9
:10B5C0008CFE82F830E015B99C448CF848008A78EB
:10B5D000540715D4D50740D5820002F1A042D2F815
:10B5E000004724F00204C2F800472E4DC40800F0C2
:10B5F000070C2E5D012202FA0CF232432A558A789A
:10B6000012F002021CD04FEA8E0303F1804303F5CF
:10B61000C0430978D3F8104524F4473424F4407427
:10B62000C3F8104502020904D3F8100501F44031B3
:10B6300002F4F8520A430243C3F81025002070BDFB
:10B64000AEF1080E43FA8EF30C7893F850101046C2
:10B6500041EA841283F8502070BD4A784FF0A0442C
:10B6600000F5E075920044F82520BEE7A446A3E764
:10B670001A6000228EF830209646A8E74FF0090C99
:10B680008EF830C05A62E6469EE74FF0010C93E711
:10B690004FF0080C8EF830C01A62E64694E700BFFF
:10B6A00098400020EC40002030B42E4C04EB000CFD
:10B6B00082B09CF93030072B1EDD083B44FA83F33F
:10B6C00093F850309B09032B41D0012B0CBF4FF452
:10B6D00000334FF44033800000F1A040D0F8002741
:10B6E00022F44032C0F80027D0F800271343C0F8F6
:10B6F000003702B030BC7047DAB2072AF9D8980098
:10B7000000F1804003F1400200F5C04052B29200C7
:10B71000D0F8105592B202F1804202F5C04245F0D5
:10B720000105C0F810550020106012680192019ABE
:10B730000029DED09CF9302054F82220002AD8D0ED
:10B740000949012202FA03F3C1F80433D1E74FF0AB
:10B75000A043D3F81035C34003F0010302331B04A8
:10B76000B9E700BF98400020006000404FF0A043C0
:10B77000D3F8103523FA00F000F00100704700BF45
:10B78000F0B585B01D4A00230193D2F800110129BC
:10B7900000F0E5811E46194BD3F80421012A00F080
:10B7A000CF81164BD3F80821012A00F0B881134B42
:10B7B000D3F80C21012A00F0A381104BD3F81021FB
:10B7C000012A00F08E810D4BD3F81421012A00F0DC
:10B7D00079810A4BD3F81821012A00F06481074BC4
:10B7E000D3F81C21012A0BD0044BD3F87C21012A69
:10B7F00000F0C28126BB05B0F0BD00BF0060004074
:10B80000D3F804231206EFD50022C3F81C21D3F885
:10B810001C110291D3F87C110298012946F0800690
:10B820000ED1C3F87C21D3F87C2103924FF0A043C2
:10B83000039AD3F820250192C3F8202546F000464C
:10B84000BE4F00240125A30003F180432E4203F5DF
:10B85000C0434FEA45050BD0D3F8100557F8242014
:10B86000D3F81015C0F30420C1F3014102B1904791
:10B870000134082CE7D1002EBDDAB04C01254FF081
:10B88000A04694F95000471C3DD0C0F3C2031033CA
:10B890006B44C1B213F80C2C00F0070305FA03F354
:10B8A0001A4200F03F002ED0830003F1A04305FAB6
:10B8B00000F7D3F80027D3F800C72CF4403CC3F8B6
:10B8C00000C7C2F30142D3F800C7022A0CBF4FF4ED
:10B8D000403E4FF4003E4CEA0E0CC3F800C723185C
:10B8E000C6F8207593F9303054F823305BB18909DC
:10B8F000032900F06581022A00F05F81032A02D14A
:10B90000022900F05D8194F95100411C3DD0C0F343
:10B91000C20310336B44C1B213F80C2C00F00703C0
:10B9200005FA03F31A4200F03F002ED0830003F122
:10B93000A04305FA00F7D3F80027D3F800C72CF48A
:10B94000403CC3F800C7C2F30142D3F800E7022A23
:10B950000CBF4FF4403C4FF4003C4CEA0E0CC3F8D3
:10B9600000C72318C6F8207593F9303054F82330F7
:10B970005BB18909032900F01981022A00F01381C3
:10B98000032A02D1022900F0118194F95200421CCD
:10B990003DD0C0F3C20310336B44C1B213F80C2C7A
:10B9A00000F0070305FA03F31A4200F03F002ED01F
:10B9B000830003F1A04305FA00F7D3F80027D3F87A
:10B9C00000C72CF4403CC3F800C7C2F30142D3F8CF
:10B9D00000E7022A0CBF4FF4403C4FF4003C4CEA15
:10B9E0000E0CC3F800C72318C6F8207593F9303041
:10B9F00054F823305BB18909032900F0D280022A70
:10BA000000F0CC80032A02D1022900F0CA8094F908
:10BA10005300431C3DD0C0F3C20310336B44C1B28A
:10BA200013F80C2C00F0070305FA03F31A4200F098
:10BA30003F002ED0830003F1A04305FA00F7D3F8AE
:10BA40000027D3F800C72CF4403CC3F800C7C2F36A
:10BA50000142D3F800E7022A0CBF4FF4403C4FF4F8
:10BA6000003C4CEA0E0CC3F800C72318C6F820753A
:10BA700093F9303054F823305BB18909032900F081
:10BA80009A80022A00F09480032A02D1022900F051
:10BA90009280D6F820350193C6F82035002B7FF42C
:10BAA000F0AE05B0F0BDD3F8042351067FF597AE94
:10BAB0000022C3F81821D3F818310293029B46F0F4
:10BAC00040068CE6D3F8042390067FF582AE002270
:10BAD000C3F81421D3F814310293029B46F02006D8
