:0200000270008C
:1080000000000120BD820700E5820700E78207002B
:10801000E9820700EB820700ED8207000000000004
:1080200000000000000000000000000029C107005F
:10803000F182070000000000F3820700F5820700CC
:10804000F7820700F7820700F7820700F782070030
:10805000F7820700F7820700F7820700F782070020
:10806000F7820700F7820700F7820700F782070010
:10807000F7820700F7820700F7820700F782070000
:10808000799D0700F7820700F7820700F782070053
:10809000F7820700F782070031C30700F782070065
:1080A000F7820700F7820700F7820700F7820700D0
:1080B000F7820700F78207000000000000000000C0
:1080C000F7820700F7820700F7820700F7820700B0
:1080D0002D9A0700F7820700F782070000000000D2
:1080E0000000000000000000000000000000000090
:1080F0000000000000000000000000000000000080
:10810000000000000000000000000000000000006F
:10811000000000000000000000000000000000005F
:10812000000000000000000000000000000000004F
:10813000000000000000000000000000000000003F
:10814000000000000000000000000000000000002F
:10815000000000000000000000000000000000001F
:10816000000000000000000000000000000000000F
:1081700000000000000000000000000000000000FF
:1081800000000000000000000000000000000000EF
:1081900000000000000000000000000000000000DF
:1081A00000000000000000000000000000000000CF
:1081B00000000000000000000000000000000000BF
:1081C00000000000000000000000000000000000AF
:1081D000000000000000000000000000000000009F
:1081E000000000000000000000000000000000008F
:1081F000000000000000000000000000000000007F
:1082000010B5054C237833B9044B13B10448AFF3D0
:1082100000800123237010BD1C5A002000000000C4
:1082200054DA070008B5034B1BB103490348AFF309
:10823000008008BD00000000205A002054DA07002A
:10824000A3F5803A704700BF174B002B08BF134BB4
:108250009D46FFF7F5FF00218B460F461348144A51
:10826000121A05F06BF90E4B002B00D098470D4BFE
:10827000002B00D098470020002104000D000D487D
:10828000002802D00C48AFF3008005F015F920005B
:10829000290001F0BBF905F0FBF800BF0000080061
:1082A0000000000000000000000001201C5A002017
:1082B000E87F002000000000000000000649074A97
:1082C000074B9B1A03DD043BC858D050FBDC00F081
:1082D0003DF8FFF7B9FF0000B8DA07006859002041
:1082E0001C5A0020FEE7FEE7FEE7FEE7FEE7FEE79A
:1082F000FEE7FEE7FEE7FEE74FF08053D3F83001DC
:10830000421C04BF4FF0704393F8E00F831F5842A4
:10831000584170474FF0704393F8E02F062A09D177
:10832000D3F8E83FC3F30313033B042B02D8024AFC
:10833000D05C70470020704787D50700024AD2F80A
:108340000034002BFBD0704700E0014010B5FFF770
:10835000D3FF40B14FF08053944AD3F82433C3F392
:108360000423C2F84035FFF7D5FF10B1904B914A76
:108370005A67FFF7C1FF48B14FF080534FF080427A
:10838000D3F84432C3F34233C2F83C35FFF7C2FF9F
:1083900030B1894AD2F8FC3023F08073C2F8FC3047
:1083A000FFF7AAFF40B14FF080430022C3F80C2131
:1083B000C3F81021C3F83825FFF7ACFF20B14FF008
:1083C00080430322C3F8A025FFF7A4FF60B17B4BD5
:1083D0000522C3F810260122C3F888260022C3F81C
:1083E00018263F22C3F814264FF08053D3F83021CB
:1083F000511C09BF4FF07043D3F8343193F8E02F8C
:10840000D3F8E83F08BFC3F30313062A4DD1033B5B
:10841000042B03D86A4AD35C002B46D04FF080521D
:10842000684BD2F80414C3F82015D2F80814C3F826
:108430002415D2F80C14C3F82815D2F81014C3F878
:108440002C15D2F81414C3F83015D2F81814C3F848
:108450003415D2F81C14C3F84015D2F82014C3F810
:108460004415D2F82414C3F84815D2F82814C3F8D8
:108470004C15D2F82C14C3F85015D2F83014C3F8A8
:108480005415D2F83414C3F86015D2F83814C3F870
:108490006415D2F83C14C3F86815D2F84014C3F838
:1084A0006C15D2F84424C3F87025FFF725FF48B1B6
:1084B0004FF080534FF08042D3F8583203F04F030F
:1084C000C2F8E43EFFF718FF48B14FF08043D3F8FD
:1084D0000024D20744BF6FF00102C3F800244FF01C
:1084E0008053D3F83021062A0ED1D3F83431033B20
:1084F000042B02D8344AD35C33B1344AD2F83C3727
:1085000043F48063C2F83C372B4AD2F8883043F4F6
:108510007003C2F88830BFF34F8FBFF36F8F4FF0F7
:108520008053D3F83021062A0FD1D3F83431033BDE
:10853000042B02D8264AD35C3BB14FF01023D3F86A
:1085400008224FF08043C3F858254FF01023D3F88A
:108550000022002A03DBD3F80432002B22DA1D4963
:1085600001234FF01020C1F804351524FFF7E6FE73
:10857000C0F80042FFF7E2FEC0F80442FFF7DEFE5B
:108580000023C1F80435FFF7D9FEBFF34F8F0A4926
:10859000114BCA6802F4E0621343CB60BFF34F8F04
:1085A00000BFFDE70D4B0E4A1A6010BD00300140C0
:1085B00000C007400DF0ADBA00ED00E000500040F3
:1085C00078D5070000C000407DD5070000100040AE
:1085D00082D5070000E001400400FA056859002038
:1085E0000090D0034B1C30B5DB00044612F00300B2
:1085F0009BB20DD1074D2A601A44074B1A60074BF6
:108600001870074B1870074B1C80074B198030BD42
:108610000720FCE7405A00203C5A0020385A00202E
:10862000485A0020445A0020465A00202DE9F347BA
:10863000DFF8C080B8F800308B4206460D4617467A
:108640004CD300240DF107008DF8074000F084F8AA
:10865000244B254A25481B78008892F800C08445A1
:108660005FFA8CF138BF4C1CDBB238BFE4B2A342D6
:108670002ED014781178CBB2884286BF0133DBB29A
:10868000002313709DF8070000F08AF84FF6FF737F
:108690009C4225D0DFF86090D9F800204FEAC40A48
:1086A00042F8347002EBC403AEB1A5B1104BB8F878
:1086B00000001B682A4604FB0030314604F030FFFE
:1086C000D9F80030534400209D8002B0BDE8F08707
:1086D0004FF6FF74D6E700209880F6E70920F4E70C
:1086E0000420F2E7485A0020385A0020465A002059
:1086F0003C5A0020445A0020405A002070B5104CCB
:10870000104D22782B789A4200D170BD0E480F4A46
:108710002378126806880E4802EBC301006852F8FD
:108720003320898803FB060090470A49227809888C
:10873000D3B2914286BF0133DBB200232370E0E75E
:10874000485A0020385A0020445A0020405A00203D
:108750003C5A0020465A002070B5EFF3108672B6DE
:108760000C4A946801239CB993600B4B0B4DD3F8D2
:10877000801029401160C3F88050D3F884105160F4
:108780004FF0FF32C3F88420047006B962B670BDA2
:108790000370FAE74C5A002000E100E0FC06FFBD40
:1087A00010B5084B9A685AB150B9EFF3108172B600
:1087B000054A1C6814605C685460986001B962B630
:1087C00010BD00BF4C5A002000E100E030B53AB1C6
:1087D0001368DB430A4D0144814204D1D84330BDC4
:1087E0004FF0FF33F6E710F8012B5340082213F047
:1087F000010418BF2C46013A84EA5303F7D1EBE792
:108800002083B8ED10B561B1B2FBF3F403FB14247F
:10881000A4B244B9C0E9001484608281C3812046B7
:1088200010BD0E20FCE70920FAE782B050E8022FC5
:10883000C188B2EB324F4FF0000317BF92B241EA4A
:10884000014142EA014104E04268B2EB324F08BF05
:10885000012340E80212002AE8D18DF807309DF884
:108860000730002B0CBF1120002002B0704737B535
:1088700050E8013F9DB2C48925448489A54228BFA0
:108880002D1B0489A54202BFBFF32F8F002207E0F2
:10889000C5EA030540E80154002CE9D14FF001027C
:1088A0008DF803200193019A0A609DF8031001F0EE
:1088B000FF0321B1006810FA82F003B030BD184602
:1088C000FBE70A884B889A4209D150E8012FC2EA97
:1088D000024240E80123002BF7D10120704700201D
:1088E000704737B550E8023F1FFAA3F5C488A54288
:1088F00002BFBFF32F8F00220DE0C4892544848975
:10890000A54228BF2D1BC3EA054540E80254002CB0
:10891000E8D14FF001028DF803200193019A0A601B
:108920009DF8031001F0FF0321B1006800EB124035
:1089300003B030BD1846FBE70A884B889A4209D13C
:1089400050E8022FC2EA224240E80223002BF7D16E
:10895000012070470020704710B5034653E8000F10
:1089600040EA010243E8002494F0000FF6D110BD64
:1089700010B5034653E8002F02EA010043E8000463
:1089800094F0000FF6D110BD0121FFF7E5BF0021E3
:10899000FFF7EEBF10B590B1D0E9012301689B1A33
:1089A000DBB20A60013BDBB2FF2B026802D1002080
:1089B000107110BD11684C1C14600B70F2E70E2092
:1089C000F7E737B5044600250DF107008DF807508D
:1089D000FFF7C2FE2268616813688B4210D9591EE6
:1089E000116013F8013C228AE56802FB03552268F6
:1089F000A36811685B1A1179DBB2994238BF137111
:108A00009DF80700FFF7CCFE284603B030BD37B510
:108A1000054600230DF107000C468DF80730FFF7DF
:108A20009BFE2A681368591C1160E968641A298A38
:108A3000B4FBF1F41C709DF80700FFF7B1FE03B022
:108A400030BD01600B681146184710B40468E46833
:108A5000A4465DF8044B604710B404682469A4463A
:108A60005DF8044B6047000070B550B90E4D0F4CD7
:108A70000026641B1423B4FBF3F4B44208D1002095
:108A800010E00368002BF1D0BDE87040DB691847A7
:108A90002B6813B901361435EFE7DB692846984790
:108AA0000028F7D070BD00BF085A00201C5A0020D3
:108AB000014B4360002070478CD507000846704783
:108AC00000207047024B1868003818BF012070471B
:108AD000585A002008B50248FFF759FF002008BD8A
:108AE000585A002008B510461A4604F019FD002017
:108AF00008BD00002DE9F041804686B011480F46C0
:108B000016461D46FFF740FF0446C8B9AA0831467D
:108B1000384600F00FFC0B48FFF739FFD8F8083053
:108B200053B101228DF800200C9A0592CDE901473E
:108B3000CDE9036568469847204606B0BDE8F08158
:108B40001124F9E7585A00202DE9F043814687B0F7
:108B500014480E4615469846FFF716FF0446F0B92E
:108B60000746BD4215D10F48FFF711FFD9F808306D
:108B70005BB102228DF800200022CDE90126CDE96B
:108B80000325CDF8148068469847204607B0BDE815
:108B9000F08306EB073000F09FFB0137E1E711247B
:108BA000F3E700BF585A002029DF704728DF7047DD
:108BB00070B50668B36886B004460D4673B11422DA
:108BC0000021684604F0BAFCA36805932379019557
:108BD00033B1012B0ED0B3686846984706B070BD1C
:108BE00001238DF8003023690293E36803936369DE
:108BF0000493F0E702238DF80030E3681B0302932F
:108C0000F5E708467047002070470000024B187ACD
:108C1000003818BF01207047485C0020034B187AC9
:108C20000122B0FA80F05A7440097047485C002075
:108C300008B510461A4604F073FC002008BD000079
:108C400008B514220021044804F078FC0348FFF71B
:108C5000ECFD002008BD00BF485C0020385C00200F
:108C600010B5094C094B43602046FFF78DFE48B90B
:108C700003F044FB064920741C2306484FF4EE72AF
:108C8000FFF7C0FD002010BD485C0020B8D50700EC
:108C90005C5A0020385C002038B5224D224C2B7ADB
:108CA0003BB922492248FFF71CFE206008B96860E2
:108CB00038BD022324682B72237973B1012B22D093
:108CC00020460321FFF774FF00232B726B601749C6
:108CD0001748BDE83840FFF72FBED4E90523D21A64
:108CE000142AD4E9031028BF14229208012A38BF9D
:108CF000012219441844FFF757FF50B11128DFD162
:108D000001232B72D4E7D4E903031844FFF74EFF85
:108D1000F3E72B7C002BCBD1BDE83840022000F0DC
:108D200009B800BF485C0020605C00205C5C00204B
:108D3000385C002038B5224C237A002B3FD0022B20
:108D400009D103282ED01F4B00221B68E2601A793C
:108D50003AB1012A20D0637C6BBBBDE83840FFF7F5
:108D60009BBFD3E905128D1A142D94BF52191432EA
:108D70009A619142EFD102284FF0000308BF1946D3
:108D80002372104B18BF0D211868FFF711FF0E4911
:108D90000E48FFF7D1FDDEE71A6901321A615B69FF
:108DA0009A42E7E7E3680133082B01D8E360D2E792
:108DB0000023E360DFE7BDE8384003F08FBA38BD39
:108DC000485C0020605C00205C5C0020385C002077
:108DD000831E012B01D8FFF7ADBF704700F0FD03E4
:108DE000012B08D1044B00225A74421E50425041BC
:108DF0001874FFF751BF7047485C002010B5064C4F
:108E0000201DFFF7C1FD28B9637C1BB9BDE81040E8
:108E1000FFF742BF10BD00BF485C00202DE9F341C1
:108E200080460D460F4801A916461F46FFF71FFD55
:108E30000446A8B11C22002104F080FB2D0B012365
:108E4000237101A90748C4F80080A760E560666146
:108E5000FFF737FDFFF7D2FF002002B0BDE8F08139
:108E60000420FAE7385C00202DE9F7438146884664
:108E7000104801A917461E46FFF7F9FC0446B0B199
:108E80001C22002104F05AFB00250A9BA36001A9C3
:108E9000C4E9037807482571C4F800906661FFF7BC
:108EA00010FDFFF7ABFF284603B0BDE8F0830420B8
:108EB000FAE700BF385C002001600B6843604A6835
:108EC000934204BF002343607047436843B1026884
:108ED00091680B4443605268934204BF002343608F
:108EE000704700002DE9F04FC9B008AA01F1400514
:108EF00014464B780E781B0443EA0663CE7833435E
:108F00008E78043143EA06238D4244F8043BF0D1C5
:108F10001024916B16464FEAF14383EA714383EACA
:108F20009123716A366852F8045F31440B444FEA6A
:108F3000B54181EAF51181EAD50101340B44402C99
:108F4000D363E6D1D0E914E30093836D0193C36D3D
:108F50000293036E0393436E0493836E0593C36E73
:108F60000693DDE9057BDDE9031CDDE901592B4BA7
:108F7000009E079374464FF00008079B53F8042B9C
:108F800007934FEAF12383EAB11383EA716A08ABCE
:108F900053F828301A440AEB020327EA010A01EACF
:108FA0000C028AEA02021A444FEA743A86EA05037E
:108FB0005A4423408AEAB40A06EA050B83EA0B0BFB
:108FC0008AEAB45A08F10108DA44B8F1400F02EB1A
:108FD0000903BB465244A94619D172440265009A5E
:108FE00022444265019A32448265029A2A44C2654B
:108FF000039A1A44049B02660B444366059B634430
:109000008366069B3B44C36649B0BDE8F08F674664
:1090100035468C46264619461446AEE7E4D5070089
:1090200030B5E0B10F4A104900240025C0E91245CF
:10903000C0E914120D4C0E4A0E4DC0E916420E4AFC
:10904000C0E918520D4A826602F17452A2F5230259
:109050000023A2F692420364C266184630BD0E2079
:10906000FCE700BF85AE67BB67E6096A72F36E3C3A
:109070003AF54FA57F520E518C68059BABD9831FE3
:1090800070B5F0B1DAB900201CE00C468D1800264E
:10909000AC42F8D0036C14F8012BC2540133402BBE
:1090A0000364F5D10146FFF71DFFD0E9123213F535
:1090B000007342F10002C0E912320664E8E70029B9
:1090C000E3D10E2070BD70B50D461646044600284B
:1090D0007AD0002978D0036C8021372BC15403F15A
:1090E000010243D8034400F13802002101339A42BF
:1090F0003AD1D4E91223216C0820E1FB0023C4E912
:10910000122312BAE26323FA00F284F83B3084F8A7
:109110003A201A0C1B0E214684F8392084F8383086
:109120002046FFF7DFFE691E7EB30023E26EDA40C1
:1091300001F8012FA26EDA400A71626EDA400A72FB
:10914000226EDA400A73E26DDA400A74A26DDA40E8
:109150000A75626DDA400A76226DDA400833202BF8
:109160000A77E3D1002070BD1970BFE700233F2AC2
:1091700008D921462046FFF7B5FE3822002104F029
:10918000DDF9B6E7A3540132F1E71823226DDA4086
:1091900001F8012F626DDA400A71A26DDA400A729D
:1091A000E26DDA400A73226EDA400A74626EDA40C7
:1091B0000A75A26EDA400A76E26EDA40083B13F1D5
:1091C000080F0A77E2D1CDE70E20CCE743689B6811
:1091D000184708B5436808305A7900F0C8F90020EC
:1091E00008BD2DE9F0410C469CB008461F4603928D
:1091F000FFF7ECFFD4F80480039998F80550BD42BE
:1092000028BF3D4606462A4604A800F0A5F998F86E
:10921000052022990CA800F0AAF900960CAB2A466A
:1092200004A904F1080003F0C9FF002848F24250E5
:1092300018BF00201CB0BDE8F0810000044B1A5C90
:10924000012393404FF0A042C2F80C35704700BF95
:10925000F0D60700044B1A5C012393404FF0A04264
:10926000C2F80835704700BFF0D6070008B50020E7
:10927000FFF7F0FF0120FFF7EDFF0220FFF7EAFF05
:10928000BDE808400320FFF7E5BFC20708B5014667
:109290000CD54FF0A0430322C3F84427C3F8482756
:1092A000C3F84C27C3F85027FFF7E0FF8B070AD518
:1092B0004FF0A0430C22C3F83427C3F83827C3F873
:1092C0003C27C3F8402708BD024AD2F80034002BDF
:1092D000FBD0704700E001400A4908B50223C1F8FD
:1092E0000435BFF36F8FBFF34F8FC1F80805FFF749
:1092F000EBFF0023C1F80435BFF36F8FBFF34F8F2F
:1093000008BD00BF00E0014010B5094C0123C4F8BE
:109310000435BFF36F8FBFF34F8F0160FFF7D4FFAA
:109320000023C4F80435BFF36F8FBFF34F8F10BD18
:1093300000E0014070B50E4E01231546C6F8043515
:10934000BFF36F8FBFF34F8F0024AC4207D10023D0
:10935000C6F80435BFF36F8FBFF34F8F70BD51F860
:10936000243040F82430FFF7AFFF0134EDE700BFB1
:1093700000E0014028B139B10023C1E900301846AE
:10938000704748F21050704748F21350704730B1A0
:10939000036848F240508B4208BF0020704748F2F3
:1093A0001050704728B148F21150914208BF002078
:1093B000704748F21050704770B506460C461D467F
:1093C000FFF7D8FF50B9B3794AB1AB420AD1114681
:1093D0002046FFF7FEFE08B9044B236070BD48F23B
:1093E0001050FBE748F21150F8E700BF7052464DAD
:1093F0002DE9F0470C4606460F492046DDE908896D
:1094000015461F46FFF7C3FFA0B963685A7949465E
:1094100052004046FFF7C6FF60B94DB1CDF820803D
:109420003B462A4621463046BDE8F047FFF7D9BE05
:1094300048F21050BDE8F0877052464D10B5044612
:1094400038B149B141600B68984708B9044B2360B3
:1094500010BD48F20150FBE748F21050F8E700BF9A
:109460006E524648F0B4134648B10768094EB742F9
:109470000AD161B12AB14368F0BC5B68184748F271
:1094800001531846F0BC704748F20253F9E748F21E
:109490001053F6E76E524648F0B460B107680C4EC0
:1094A000B7420CD171B143681568DC68A5420CD392
:1094B000F0BC9B68184748F20150F0BC704748F276
:1094C0000250FAE748F21350F7E748F21450F4E775
:1094D0006E524648F7B50446DDE908671546019324
:1094E000FFF7ACFF68B9019A29462046FFF7BAFF9B
:1094F00038B93A463146204603B0BDE8F040FFF7A0
:10950000CBBF03B0F0BD0000F8B50A4F0A4C0B4EBC
:10951000E41B0123E40833700025A54203D1022394
:1095200033700020F8BD57F8353098470028F9D13E
:109530000135F2E758DA070058DA0700645C0020CA
:1095400001390144814200D2704703780A7800F85B
:10955000012B01F80139F5E7013A02440139824251
:1095600000D2704711F8013F02F80139F7E770B5F2
:1095700016460D46FFF7F0FF3246A9193044BDE804
:109580007040FFF7E9BF38B50D460446FFF7D8FF36
:1095900029466019BDE83840FFF7D2BFBFF34F8FAF
:1095A0000549064BCA6802F4E0621343CB60BFF37F
:1095B0004F8F00BFFDE700BF00ED00E00400FA059B
:1095C00008B507281BD8DFE800F004121A1A1A049D
:1095D0001A040120FFF759FE0020FFF72FFE01209B
:1095E000FFF72CFEBDE808400220FFF733BE012044
:1095F000FFF730FEBDE808400220FFF71FBE08BDA0
:1096000008B5FFF7CBFF08B5FFF7C8FF08B500F0B6
:109610007DFB4FF48051002000F03FF908B1FFF7C7
:10962000BDFF0548C0F5FC2100F037F90028F6D150
:10963000024800F059F8F2E700800700C1950700E2
:10964000008800F00100704741DF7047014B0122A4
:109650001A70704788600020BFF34F8F0549064B92
:10966000CA6802F4E0621343CB60BFF34F8F00BFC0
:10967000FDE700BF00ED00E00400FA05024B0348DF
:1096800000221A7001F08ABF8860002059960700F6
:10969000042810B5044609D8022811D816D00D4B5D
:1096A0001B68B3B12046BDE810401847831F012B4B
:1096B000F5D8094B094800221A7001F06FFFEEE758
:1096C00007494FF4701000F0F5F9E8E701F0B2FE39
:1096D000E5E710BD8C6000208860002059960700E7
:1096E0007D9607000020704738B5554B554A1860E5
:1096F0004FF0A0430020C3F8402701F065FF044667
:10970000002840F0978000F0ABFA012800F08D802F
:10971000022800F09180002840F08C804FF08043B8
:10972000D3F8004414F4803436D04FF48032C3F8B8
:1097300000240446444D2B6A012B3BD04FF4701497
:1097400000F028FB414A20211820FEF74BFF08B10A
:10975000FFF759FF4FF08043D3F81C2502F0F902C0
:10976000B12A02BFD3F81C2502F04E02C3F81C2513
:10977000FFF7B8FF00285DD12046354900F09AF97F
:10978000344801F019F8002854D100F029FBFEF705
:10979000B5FFFFF759FFF8E7D3F8202502F0F902EB
:1097A000A92A03BFD3F8202502F05602C3F82025CA
:1097B0000124BFE74FF440535A68274B9A4209D01F
:1097C00001F0B2FFAA69014694B1244802F080FA80
:1097D00090B9B3E76A6B1CB995F86032012BEFD0F2
:1097E0001F484FF4805102F073FA0028E8D1A5E732
:1097F00095F8A132012BE8D14FF0A043D3F81035F2
:10980000DB039BD54FF08043D3F81C3503F0F903FD
:10981000B12B93D001F034FF60B9124B187012488D
:1098200001F0BCFE00F024F804E00E4B0F481C7061
:1098300001F0B4FE032038BD4FF4A02480E700BF40
:109840008C6000200C00030058780020685C002029
:109850007D96070091960700DBE5B151F97A00206B
:10986000B87A0020886000204D96070059960700BE
:1098700008B5074B4FF0FF32C3F88020C3F88021B2
:1098800001F0F6FBBDE808404FF4805000F032B81C
:1098900000E100E080F30888084770B5C1F30B04CD
:1098A00034BBB0F5FE2F23D84B1E1B0B020B03EB72
:1098B000103101264FF08040914201D2204670BD08
:1098C00002F01F03550906FA03F3032D05D8DFE85C
:1098D00005F00206090CC0F800360132ECE7C0F8CA
:1098E0000436FAE7C0F81036F7E7C0F81436F4E7A4
:1098F0000724E3E710B504461448C0F5FE21FFF73E
:10990000CCFF08B1FFF77FFE01F00EFF104B9B6903
:1099100003F6FF7323F47F6323F00F03191800206D
:10992000FFF7BBFF08B1FFF76EFEEFF305830023DF
:10993000D4E9000183F3148883F3108883F311883A
:1099400083F31388BDE81040FFF7A4BF0080070031
:10995000587800201FB518490B7853BB4FF080434F
:10996000A024D3F81824D2035CBF01229A60134BC1
:109970000022C3F80021D3F8000103900398C3F834
:109980004021D3F8400102900298C3F84421D3F853
:109990004401019001980A4880F82443102444604F
:1099A0000220C3F8082501229A601A60C3F8040354
:1099B0000A7004B010BD00BF946000200040024057
:1099C00000E100E037B56FF07F42154C057BD4F81D
:1099D00004358A4228BF0A46891A13444A1E942A2B
:1099E00023F07F4305F5A8729BBF963B96314160FB
:1099F000416044F822300B4B4FF4F86043F0010310
:109A00009847094BAA00134400221A601B6801936F
:109A1000019B4FF48033AB40C4F8043303B030BD36
:109A20000040024040D70700404102402DE9F34189
:109A30001B4BD3F8042152B11A490A6801320A605B
:109A40000022C3F80421D3F804310093009B164C84
:109A5000164DDFF84C80164E00272B6873B12F602F
:109A60002B68227B0193019B4FF480339340C8F80D
:109A70000833616851B12046FFF7A4FF0435B542B1
:109A800004F11004E9D102B0BDE8F081A16811B180
:109A90002046FFF797FF2368002BEFD09847EDE7AC
:109AA00000400240906000206C590020404102407C
:109AB0004841024070B50B4B1D682A7B4FF4803340
:109AC0009340094A0E46C2F80833044640B1FFF7F6
:109AD00041FF2E6021462846BDE87040FFF772BF67
:109AE00070BD00BF8C5900200040024070B5074B8C
:109AF0001D680E46A8600446FFF72CFF2E60214625
:109B00002846BDE87040FFF75DBF00BF90590020B8
:109B1000014B01221A707047956000202DE9F74F24
:109B200006468846A8EB06052D0B02F6FF7714467D
:109B300000F030F9082D28BF08252B03DFF868B0A6
:109B400001933F0B0CB9234629E0BD422CBFBA4616
:109B5000AA464FF000025146304634BFDDF804906B
:109B6000A14601F04FFA0346C8B909F1030222F0F9
:109B700003024146304601F037FA034678B9DBF874
:109B800030304B44CBF8303001F00EFDA7EB0A0724
:109B9000A4EB09044E44C84403460028D2D018461A
:109BA00003B0BDE8F08F00BF5878002010B501F079
:109BB000DFFD124A916C01F500535C68104B9C422A
:109BC00018D1D2E90C32934216D0884204D1BDE8B4
:109BD0001040002001F0E8BCD21A02F6FF7222F415
:109BE0007F6222F00F0219441844FFF797FF002804
:109BF000EDD010BD0320FCE70020FAE758780020E4
:109C0000DBE5B15170B5144EF36A756AB46CAC2BD8
:109C100013D1736B1C44ED1AF36AAC2B13D00F48AD
:109C20002A46214603F06CFCA8B100F0D9F8294679
:109C30002046BDE8704001F0FDB9002CECD101F0E8
:109C400087FD0446E8E705482A46A4F5804103F06D
:109C500057FC0028E3D170BD587800200080070031
:109C600070B5264CE36AAA2B37D005D8012B0BD050
:109C7000A52B2ED0002070BDAC2BFBD1FFF796FF9B
:109C800048BBFFF7BFFF26E0A66C656A01F04CFDFC
:109C9000864229D101F048FD00222946FEF796FDB3
:109CA000A36A984202BF0123C4E90703A561002506
:109CB000134801F02DFD134B134800221A7001F0D8
:109CC00073FC68B975B1236A012B14BF012002200F
:109CD000D1E7FFF76BFF0125EAE7FFF793FFE6E720
:109CE0000320C8E70120C6E7236BEA1AF1181844DD
:109CF000FFF714FF0028DAD1CCE700BF5878002026
:109D00007C78002095600020119B070010B500248E
:109D1000D4F8F83F013304D1084940F6F870FFF752
:109D2000F3FAD4F8FC3F013307D1BDE810404FF4FB
:109D3000FC2140F6FC70FFF7E7BA10BD0080070079
:109D40000A4AD2F800347BB109480023D2F808153A
:109D5000D940C90748BF03F5C07103F1010348BFEB
:109D600042F82100072BF1D1704700BF00000140ED
:109D70003546526EFFF7E4BF054B002282B0C3F8B0
:109D80000021D3F800310193019B02B0704700BF5E
:109D90000000014038B50E4D2B78BBB90D4BD3F800
:109DA00000248AB1D3F80445FFF7CAFF40F61650E5
:109DB000A042B8BF20460849A0F54860FFF796FECC
:109DC000064B4FF480321A6001232B7038BD00BF60
:109DD0009660002000000140759D070000E100E052
:109DE000034BD3F800340BB1FFF7AABF704700BF95
:109DF000000001400023C0E90232C0E900118B8855
:109E00001A440261B1F906301A44426108880038E8
:109E100018BF0120704710B5426811880346002919
:109E200039D002F110014160148A2CB9C26801686E
:109E3000FFF7E0FF204610BD9078118900F0300454
:109E4000302C1BD1947C04F03004302C1DD1908830
:109E50001969091A19610021907810F0300F02BFBA
:109E6000986801309860908A084419690144196122
:109E7000B2F91620114459610120DCE700F0F0042A
:109E8000202C02D150894143E6E700F0C000802831
:109E900008BF0421E0E70846CDE770B546680446F0
:109EA0000D4663681A88AA4204D19B7803F00F0319
:109EB000082B07D12046FFF7AEFF6368B342F0D10D
:109EC000002070BD0120FCE743681A44426011B1D4
:109ED00001399A4201D10120704713F8010B01F8B2
:109EE000010FF6E770B54268927802F00F01082979
:109EF00086B003461FD103691C6800260CB906B062
:109F000070BD236826739D68626829466846FFF71E
:109F100071FF6368049304F10C030593AB7803F0BD
:109F2000C003802B08BF231D684608BF0493FFF7BA
:109F3000D9FFA468E2E712F0C00126D102F0300098
:109F4000102810D15A6911705A6818699378D4682A
:109F500003F00F03072B0BD10146204606B0BDE8E6
:109F6000704000F01AB89006EED55B691980C6E71C
:109F70001289214624B106B0BDE8704003F0D0BA82
:109F800006B0BDE8704003F0D9BA8029B7D10069A6
:109F9000002192060160B2D5E7E77FB50A46014687
:109FA0006846FFF727FF30B16846FFF79BFF68461A
:109FB000FFF731FFF7E707B05DF804FB10B58368E2
:109FC00004460BB9002010BD036801229847002801
:109FD000F8D0A368013BA360F5E72DE9F3410F46F4
:109FE0000DF107018046FFF7E9FF054620B900257E
:109FF000284602B0BDE8F0819DF907309DF8074082
:10A00000002B13DA04F07F0407260DF10701404608
:10A01000FFF7D4FF0028EAD09DF8072002F07F0365
:10A02000B3401C43130606F1070601D43C60DFE78A
:10A03000232EEAD1DBE7000030B5044685B0154693
:10A04000A9B90268114B9A4211D0102D06D82A46A0
:10A0500069462046FFF7F0FF05B030BD1022694683
:10A060002046FFF7E9FF0028F6D0103DEDE7A36892
:10A07000AB4201D20020EFE723682A4620469847EA
:10A080000028F7D0A268521BA260E5E7C99E07002E
:10A09000F7B50E4601A907461546FFF79EFFA0B18A
:10A0A000019A511C4FF0000404D2B37803F0C003AE
:10A0B000802B01D1204608E033898B42FAD3294610
:10A0C0003846FFF7B9FF019BEC5403B0F0BD73B500
:10A0D0000D4601A906461446FFF77FFF98B1019A85
:10A0E000B2F5803F11D2AB7803F0C003802B02F1B0
:10A0F00002010AD02B898B4207D32146304621F832
:10A10000022BFFF799FF02B070BD0020FBE70000B3
:10A1100010B5034C82600022C0E90041C26010BD4E
:10A12000C99E07002DE9F341002580460E462F46C3
:10A130002C460DF107014046FFF740FFC0B19DF8E6
:10A1400007C0A4F120030CF07F02C4F1200102FA41
:10A1500003F322FA01F10B43A2401CF0800F45EA01
:10A16000020547EA030704F1070404D1C6E90057D2
:10A1700002B0BDE8F081462CDBD10020F8E737B50E
:10A180000D4669461446FFF7CDFF70B12B89082BA9
:10A190000DD1DDE90032C4E90032DDE90001914270
:10A1A00008BF98420CBF0120002003B030BD042B33
:10A1B00003D1009B23600022EFE7022B03D1009B19
:10A1C00023809BB2F7E7012B04D1009B237003F09F
:10A1D000FF03F0E70020E8E737B50D46694614466F
:10A1E000FFF7A0FF30B12B89082BDDE9001203D166
:10A1F000C4E9001203B030BD042B4FEAE17009D16D
:10A2000021600B460246824208BF8B420CBF0120F0
:10A210000020EFE7022B03D10BB22380DA17F2E71D
:10A22000012B02D14BB22370F8E70020E2E7F7B52B
:10A230001F4600233B700D460B70136001A90446B6
:10A240001646FFF7CAFE30B9A36813B901233B7065
:10A25000002003B0F0BD019C002CF7D0E30804F00F
:10A26000070433602C70F4E713B50446052925D89C
:10A27000DFE801F0030F17242422012201A9204660
:10A28000FFF7DAFE18B19DF90430002BF5DB02B0C0
:10A2900010BD08220021204602B0BDE81040FFF7A3
:10A2A000CBBE01A9FFF799FE0028F0D0019A00214A
:10A2B0002046FFF7C1FEEAE70422EBE70020E6E7CD
:10A2C00073B50D4601A90446FFF787FE064618B987
:10A2D0000026304602B070BD94E80F0085E80F00FC
:10A2E00001998A42F4D3A960A3685B1AA360F0E7DE
:10A2F0002DE9F0435768BB7813F0C00489B00646D7
:10A300008C46154603D0402C6CD000240CE003F0A2
:10A310000F02614903F03003202B51F8228028D02E
:10A3200006D8CBB1102B1ED0204609B0BDE8F08373
:10A33000302BF9D16B6939881980072A0AD16B68EB
:10A3400028691A89214603F0F9F86B682969D868E9
:10A35000FFF723FE2A6942E02A693946434609B0DD
:10A36000BDE8F04318476B6901221A702A696968D1
:10A37000F4E7BCF1020FD5F8149024D1042A22D8B6
:10A3800004A9FFF79DFF04460028BED0069B2BB111
:10A390006968B9F800304A899A4205D8059B73600C
:10A3A000069B002BC0D0B0E708892A6903FB002276
:10A3B00004A8C04728B1B9F800300133A9F800302B
:10A3C000E4E70446EAE7B9F800307A899A429CD972
:10A3D0002A693989581CA9F8000003FB0122696821
:10A3E0003046BBE7D2F81080474657F8043B23B904
:10A3F00009B0BDE8F043FFF737BF022914D104A923
:10A40000FFF75EFF002880D0D8F8003069683A4630
:10A4100004A89847044600283FF477AF069B002B1A
:10A42000F2D1059B73607FE7012926D005292CD046
:10A4300000297FF46AAF0C460DF1040901340B2C9E
:10A440003FF463AF012249463046FFF7F5FD00288F
:10A450003FF45BAF19F9013B002BEFDB0F4B04938B
:10A4600001ABCDE9053400230793D8F800306968C3
:10A470003A4604A89847044656E7082201A9FFF780
:10A48000DBFD08240028E9D13FE704220DEB02019F
:10A49000FFF7D2FD0424F5E748D70700C99E07005F
:10A4A0002DE9F04F91B00446002604A8CDE90266DC
:10A4B000FFF7A0FCA3683BBBDDE9053404A89D7849
:10A4C000FFF7A9FC0028F7D115F0300F03D1059B49
:10A4D0001B8803B10134002C00F0A980630902A994
:10A4E0000022934240F09C8010AA02EB830304F008
:10A4F0001F0453F8383CC4F120044FF0FF30E04013
:10A50000C31A584258410DE00DF1030301AA0DF1A1
:10A5100002012046FFF78BFE38B99DF80330002B6F
:10A52000CAD1002011B0BDE8F08F019904A8FFF74F
:10A53000B4FC002850D1019BB3427DD3059D059A00
:10A54000937803F00F03082B7FD004A8FFF763FC78
:10A55000059B9D42F3D14FF0FF36019FB7426BD36D
:10A56000089B9DF802A0D4F808801D684FF00109EF
:10A57000A368002D5DD098459CD12B68D3F800B01E
:10A58000BBF1000F08D053463A4629462046D8472B
:10A590000028C6D0AD68EBE7D3F808B0BBF80030B0
:10A5A0009F42F7D16A6859460AA8FFF723FC6B68F7
:10A5B0000E9305F10C030F939BF8023003F0C003D8
:10A5C000802B04BF2B1D0E930AAA85F80C905146D0
:10A5D0002046FFF78DFEDBE7059B9B7813F0300FDD
:10A5E0000FD1069A3F2A0CD8510910AB03EB810119
:10A5F00002F01F020123934051F8382C134341F815
:10A60000383CE5682DB19DF80220019904AB204645
:10A61000A8479DF8021004AA2046FFF769FE10E043
:10A6200051F8045B01357FF47DAF013259E7012019
:10A6300078E798457FF43EAF9DF802102046FFF77B
:10A6400013FE00287FF436AF6BE7168885E737B531
:10A650000C460546114620460192FFF79EFC019AE2
:10A660002146284603B0BDE83040FFF719BF70B55A
:10A6700086B0CE6801920C4602A90546FFF720FE7F
:10A6800068B1E06858B1A378019A03F03003202B39
:10A69000314602A805D1FFF7DAFF039B6B6006B0D5
:10A6A00070BDFFF7FDFEF8E713B50C466946FFF7EE
:10A6B00039FD60B1DDE900134A0842EAC372C907F7
:10A6C0004FEA530344BFD243DB43C4E9002302B043
:10A6D00010BD37B50D4669461446FFF7E5FF70B16A
:10A6E0002B89082B0DD1DDE90032C4E90032DDE908
:10A6F0000001914208BF98420CBF0120002003B026
:10A7000030BD042B03D1009B2360DA17EFE7022B47
:10A7100003D1BDF900302380F7E7012B03D19DF968
:10A7200000302370F1E70020E9E713B504220C465E
:10A730000DEB0201FFF780FC08B1019B236002B022
:10A7400010BD1146FFF7F1BF13B508220C4669464C
:10A75000FFF772FC18B1DDE90023C4E9002302B061
:10A7600010BD1146FFF7F0BF10B513681F2B14463C
:10A7700007D900220830FEF7A6FC08B92023236081
:10A7800010BD48F21450FBE70830FEF779BC0830E2
:10A79000FEF746BC831F012B10B5044602D80020EB
:10A7A00000F09EFF034B1B681BB12046BDE8104024
:10A7B000184710BD9860002008B5074B18600020AE
:10A7C000FFF7E8FF054800F073FF20B9BDE8084037
:10A7D000024800F0E3BD08BD9860002095A707007F
:10A7E0006CDF70476DDF704772DF704773DF704753
:10A7F00074DF704775DF704776DF70477ADF704728
:10A800007CDF70477DDF70477FDF704786DF7047F2
:10A810008FDF704790DF7047A8DF7047AADF70476F
:10A82000ADDF7047AEDF7047B0DF7047B1DF704714
:10A83000B5DF704762DF704766DF704713DF704730
:10A8400001460148FEF7E3B86CDA070070B518223C
:10A850008CB000210DEB020002F070FE282308935B
:10A8600016231E4CADF806300023CDE903330593C3
:10A870000223062223702371592301250926A27081
:10A8800063710322FE236570E270A3710DF106016E
:10A89000A0198DF818508DF82D500294ADF80C6069
:10A8A000FFF7B0FFB8B9BDF8063026725A19E27149
:10A8B000BDF80C200A4C134402A906AA2046ADF8A4
:10A8C0000C30FFF791FF30B92078FFF791FF207827
:10A8D0002946FFF78BFF0CB070BD00BF1A71002036
:10A8E0009459002038B515490B68024613F0010051
:10A8F00022D0134882421ED0124A10884FF6FF72AF
:10A90000904213D043F004030B601321FFF774FF50
:10A9100090B90D4DC82445F001054FF47A40A84781
:10A92000013CFAD1BDE8384001F0A8BC074B1878CB
:10A93000FFF75EFFF6E7002038BD00BF3C71002046
:10A9400058DA07009659002050D907009459002082
:10A95000F0B50388232B8BB0044635D80F2B04D8D1
:10A96000012B00F0F9800BB0F0BD103B132BFAD88F
:10A9700001A252F823F000BFF9A9070017AA0700A7
:10A9800067A90700F9AA07003DAC070067A90700FF
:10A9900067A9070067A9070067A9070067A907005B
:10A9A0004BAC070067A9070067A9070067A9070064
:10A9B00067A9070023AB070067A9070031AB0700B1
:10A9C00067A90700DFAA0700503B9AB2062ACAD837
:10A9D000062BC8D801A252F823F000BF43AA0700F3
:10A9E00065AB07004BAC070067A9070067A9070024
:10A9F0009BAA070045AB0700974D83882B80974B98
:10AA00001B680BB101209847954928880BB0BDE819
:10AA1000F040FFF7EFBE904B4FF6FF721A80914B5C
:10AA20001B685A0704D4FFF711FF08B1FEF7EBFDCE
:10AA30008A4B1B68002B96D002200BB0BDE8F0407B
:10AA40001847894EE288B3889A428CD18748FDF72F
:10AA5000B8FF0546002886D0228A04F1120102F0D0
:10AA60005FFD1822002104A802F068FD08238DF87C
:10AA700010307F4B06937F4B0596CDE9073504A830
:10AA8000238AADF8243000F07FFC00283FF46BAF40
:10AA900076482946FDF7BBFF65E7E188F6291CD813
:10AAA000CB1E9B070DD0CB1F9BB2013B5A4202F03D
:10AAB000030203F0030301F1FF3158BF5342C91AE7
:10AAC00089B2654B1888FFF7B3FE00283FF44BAFFF
:10AAD0000BB0BDE8F040FEF796BDF721F1E700228C
:10AAE000808804A9CDE90422FFF794FE00283FF4F2
:10AAF0003AAFFEF788FD36E7574C022304932088CF
:10AB000002AB04AA42F605210593FFF789FE08B1BE
:10AB1000FEF779FD002320881A468521FFF774FE91
:10AB2000E4E74D4B00F108011888FFF763FECCE71E
:10AB3000002304A980888DF810308DF81130FFF7BC
:10AB400067FED3E7A379002B7FF40DAF424B1321AF
:10AB50001888FFF751FEB8E73F4B00211888FFF730
:10AB60006BFEB2E7A379002B3FF4FDAE022B7FF41E
:10AB7000FAAE3D4D2189AA8991427FF4F4AEA27BC1
:10AB8000012A7FF4F0AE4FF480320592228A324ED1
:10AB9000ADF81820628AADF81A2004F11402079269
:10ABA00001AF298A3088049302AA02930397FFF722
:10ABB00037FE60B93846FEF743FD40B940F2FD1359
:10ABC0003088ADF8143004A9FFF72EFECBE6002341
:10ABD00004A93088ADF81430FFF726FE014600289E
:10ABE0007FF4C1AE182204A802F0A8FC237D204AFD
:10ABF0008DF81030022B0595069218D0062B10D038
:10AC0000012B10D11C4B1A881C4B1A80637DD4F881
:10AC100016200893012B099205D1194800F060FD18
:10AC200001E0637D089304A800F0AEFB9BE6124AA6
:10AC3000B4F815301380114A1380F4E700231A4644
:10AC400019468088FFF7E2FD3FE70023A0881A46F7
:10AC50001946FFF7EBFD38E79659002040710020B8
:10AC600056D907003C710020067100206CDA0700FD
:10AC7000C5AC070041A807004471002046710020C0
:10AC800058DA07007FB50023CDF80B308DF80F3070
:10AC90000A4BADF806109B89ADF8083001238DF8FA
:10ACA0000A300DF10603CDE90430054B02A91888DE
:10ACB000FFF7B8FD07B05DF804FB00BF0671002088
:10ACC0009659002010B5044686B000210D2202A836
:10ACD000019102F033FC2378082B0BD1364A374917
:10ACE00013880988013B9BB21380D9B1D3B90323E0
:10ACF00011802370627823788DF805306021012A55
:10AD00008DF804108DF806200ED00B2A12D100F019
:10AD100087F98DF80700002000F07CF9042101A8D4
:10AD2000FFF7B0FF06B010BD062B05D0082B29D0C9
:10AD3000032B27D00321F2E7E1688DF80710D4E94F
:10AD40000123080A8DF80800080C090E8DF80A1076
:10AD5000110A8DF80B208DF80C10110C120E8DF8C5
:10AD60000E201A0A8DF80F308DF810201A0C1B0EC9
:10AD70008DF80D108DF809008DF811208DF8123026
:10AD80000F21CCE7D4E90123110A8DF807208DF8B3
:10AD90000810110C120E8DF80A201A0A8DF80B30CB
:10ADA0008DF80C201A0C1B0E8DF809108DF80D2053
:10ADB0008DF80E300B21B2E746710020447100205F
:10ADC0002DE9F0413E4B94B005464FF6FF721A80D4
:10ADD00001204FF659632A4602A98DF80A00ADF802
:10ADE0000830FFF719FD0446002865D1354B04AA49
:10ADF00003F11007164618685968144603C408334F
:10AE0000BB422246F7D1A91C3046FFF713FD04468A
:10AE1000002851D101461C220DA802F08FFB9DF89D
:10AE200034308DF8044043F004038DF834300223AD
:10AE3000ADF80C30AB788DF80E3003238DF806306A
:10AE4000F423CDE90A44ADF82C302B464FF011081D
:10AE500033F8040B0C9403AF01AE08AA0DA98DF8CA
:10AE6000058008970996FFF7D9FC044620BB0146E8
:10AE70001C220DA802F062FB18238DF83430012348
:10AE8000ADF80C30AB788DF80E3013238DF806300A
:10AE90001723CDE90A44ADF82C302B4608AA33F825
:10AEA0000C0B8DF804400DA90C94CDE908768DF8B3
:10AEB0000580FFF7B3FC0446204614B0BDE8F081DE
:10AEC0009659002040D9070030B5334C236813F061
:10AED000010585B05DD1314B18603148FDF75AFD51
:10AEE000029500F0B8F800284CD12E48FFF7A6FCD8
:10AEF000002847D101F084F9002843D102A801F0CD
:10AF000051FA00283ED102A9012001F055FA00288B
:10AF100038D102A801F0B8FA002833D100F0A0FB24
:10AF200030B1214800F090FB236843F00203236016
:10AF3000112302A88DF80430FFF754FC10BB9DF8D4
:10AF4000093002A801338DF80930FFF749FCC8B970
:10AF500023689B0718D514498869043182B201A877
:10AF6000FFF74EFC70B91148FFF748FC50B9104884
:10AF7000FFF726FF30B9FFF769FC18B9236843F0E3
:10AF80000103236005B030BD0A4802F0DFFA094929
:10AF9000E4E70020F6E700BF3C710020407100208C
:10AFA0006CDA0700008007009C60002056D907007B
:10AFB0000671002038D9070043690BB1C0681847F3
:10AFC0007047000010B40549054C0022904218BF9C
:10AFD000214604485DF8044BFDF733BD98D50700C2
:10AFE000C4D50700085A002007B5009313460A4647
:10AFF00001460348FDF729FD03B05DF804FB00BFDF
:10B00000085A002013460A4601460148FDF724BDB0
:10B01000085A0020014B18700B207047487100201F
:10B02000024B002218781A70704700BF4871002048
:10B0300018DF704730B585B0054610220C466846CB
:10B04000002102F07BFAA408684601950294FFF7FC
:10B05000EFFF05B030BD1FB50023CDE901330393E9
:10B06000684602230093FFF7E3FF05B05DF804FB99
:10B070004FF000534FF480521A60002070470000D8
:10B08000014B06201B681847547100200A2803D979
:10B090000B38C0B2FFF7BEBF7047000010B50446C2
:10B0A00086B00020FDF7E0FC014638B1174A1821B0
:10B0B000204606B0BDE81040FDF7B8BA1822684631
:10B0C00002F03CFA0423124A8DF80030114B116D46
:10B0D0001B68994212D1104B186800F05BFF8DF885
:10B0E0000100FFF7D3FFD4E901138DF80100684692
:10B0F00098470A4800F058FA06B010BD01238DF8B1
:10B1000001306846D4E901139847F5E79DB0070080
:10B11000587800204C7100205071002081B0070049
:10B12000F0B5044687B018220021684602F006FAFE
:10B1300022788DF8002001238DF80130531E0B2B4F
:10B1400000F21681DFE813F01D0010001D001D0045
:10B1500014011D0014011D001401140114010C0040
:10B16000844B07201B689847D4E901136846984729
:10B170009DF80130012B00F0F0807E4B05201B680C
:10B18000EAE0062A7C4901D0012A01D122690A702D
:10B190000A78012A04D0022A53D000230B7096E0CB
:10B1A000072BE1D801A252F823F000BFCDB1070070
:10B1B00069B1070037B207000BB2070069B1070099
:10B1C00031B2070069B10700E5B10700694B032000
:10B1D0001B689847606900F0C9FCFFF757FF8DF8BE
:10B1E0000100C1E7A18A206900F0D8FCFFF74EFFFB
:10B1F000624B8DF80100DA6B1B6C0293E3680192DD
:10B20000002BB1D020699847AEE75D495D4800F05A
:10B2100013FDFFF73BFF01288DF80100A4D10020AA
:10B2200000F0C2F900289FD00A238DF801309BE777
:10B230004FF400730393514BDA6B1B6C0192029332
:10B2400092E7072B90D801A252F823F06DB20700C5
:10B2500069B107002BB3070035B3070069B10700D8
:10B260005FB3070069B10700D3B2070000F0B6FC76
:10B2700008B90823D9E762690AB90323D5E7C2F3FD
:10B280000B0333B13D4B3E495B6D096813448B4260
:10B29000F3D1B2F5805F01D90423C6E7374B3849B3
:10B2A000586D096815188D42E3D85A64DA6C9A64AF
:10B2B00018651863334B61691B6801F6FF71002242
:10B2C000090B1844FFF79EFE00283FF44DAF0523FD
:10B2D000ABE700F083FC0028CBD0284DA18AD5E94C
:10B2E00014329B1A6A6C0B449342C6D8254B2F6BC1
:10B2F0001B68206905F148021F44FDF767FAE368FF
:10B30000A28A216906463846FFF76EFE08B1E36857
:10B3100078E7A28A2B6B029613442B63A38A2A6DCB
:10B32000AE6413442B6501931EE7144B9A6C029292
:10B330001B6DF8E7114BD3E91402596C821A8A424B
:10B3400097D19A6C5865002120465964DA64FFF75A
:10B35000A5FE084B1B680420984707B0F0BD074BBB
:10B360009A6C1B6D01934FF4805302920393FBE69A
:10B3700002235AE754710020985900205878002081
:10B380004C7100205071002083681BB1024A1821C3
:10B39000FDF74CB90720704721B1070038B50546C5
:10B3A000C0B10120FFF70EFE044648B900F0D0FB03
:10B3B00000F014FC30B9084B00201D60FFF72AFE96
:10B3C000204638BD0549064800F036FC0128F2D079
:10B3D0000324F5E70724F3E7547100204C710020A3
:10B3E000507100202DE9F04115464FF46072064679
:10B3F00088461F4602F084F828B915B90020BDE838
:10B40000F081A847FAE7002201213046FFF7FAFD54
:10B4100070B94FF460724146384602F081F82B460D
:10B420004FF4607239463046FFF7DEFD0028E5D064
:10B430000320E4E72DE9F0413B4C236801335AD067
:10B4400000225821201DFDF7C1F927683A1A5742FA
:10B450005741DFF8F080354DD8F80060336801338C
:10B460005ED000225821301DFDF7B0F933688342C9
:10B4700043D17468012C0AD00022C32106F518704C
:10B48000FDF7A4F9D6F85C42231A5C425C41B7B3DD
:10B49000254926484FF4607202F042F874B1D8F89A
:10B4A000001023485422043102F03AF8D8F8001072
:10B4B00020484FF432725C3102F032F86C68012C93
:10B4C0002CD11D49402201F5E47002F029F81B49F6
:10B4D0001C2201F5E47002F023F8194985F8A14215
:10B4E0000023042201F2862085F8603285F8E232DA
:10B4F00002F016F810E00027ABE70024C7E72CB1F4
:10B50000D8F8001009484FF46072D5E707484FF4A7
:10B510006072002102F012F802236B60BDE8F08136
:10B52000002FF3D00024B3E700F007005878002084
:10B530005C780020B4780020B4790020F4790020F1
:10B54000747800209C59002070B50C4C05460022F0
:10B550005821201DFDF73AF900222060C32104F58F
:10B560001870FDF733F92A46C4F85C022146044BF3
:10B570000448BDE87040FFF735BF00BF5878002091
:10B58000D874002000F0070002460248024B006811
:10B59000FFF728BF9C590020587100200149FFF790
:10B5A000F3BF00BF00F0070038B505460020FFF7E5
:10B5B000CBFF044618B903492846FFF7E5FF2046AC
:10B5C00038BD00BF5878002010B5FFF7FBFC0446DB
:10B5D00028B9FFF72FFF2046FFF7E6FF00B1032051
:10B5E00010BD000010B5084C4FF40072FF2104F1AB
:10B5F0005C0001F0A3FF2022002104F1380001F0DB
:10B600009DFF0023236310BD5878002029DF704779
:10B6100038B50C4D0446D5F8643378B101330FD1F9
:10B62000002218210430FDF7D1F82060214605F5ED
:10B6300059700722BDE83840FFF7E8BF0E2038BD3B
:10B640000820FCE700F0070008B528B103491C22D8
:10B6500001F066FF002008BD0E20FCE764F3070040
:10B6600010B5064C002218212046FDF7AFF854F81B
:10B67000043C1B1A5842584110BD00BF68F3070034
:10B6800010B50A4CD4F82433D4F8642313400133A2
:10B6900009D04FF4FE20FDF71FFEC92221464FF4CA
:10B6A000FE20FDF747FE002010BD00BF58780020A7
:10B6B000F8B5094F094CE41B0646E4080025A542ED
:10B6C00001D10020F8BD57F83530304698470028A2
:10B6D000F8D10135F3E700BF58DA070060DA070058
:10B6E000F8B5094E094CA41B0746E40800250436AA
:10B6F000A54201D10020F8BD56F8353038469847AC
:10B700000028F8D10135F3E758DA070060DA0700BE
:10B7100008B50C22002101F011FF024B00221A6330
:10B7200008BD00BF587800204FF44053074A5968BD
:10B73000914201BF986800F6FF7020F47F6020F00E
:10B740000F0018BF4FF48050704700BFDBE5B151C8
:10B7500008B5FFF7E9FF054B9B69184400F6FF7039
:10B7600020F47F6020F00F0008BD00BF5878002053
:10B770004FF48050704700002DE9F74F1F46244BCF
:10B78000DFF894B01B6ADFF89490019104461546E7
:10B7900000934FF000084FF4405AB8F1010F5FFAE0
:10B7A00088F61AD0022E24D0FFF7D2FF9DB1009B5D
:10B7B000013B59425941A9EB0000A04201D3019B32
:10B7C000EBB1D1B908F10108B8F1030FE5D1A042FE
:10B7D00016D2042018E02946EDE7FFF7A5FF37B998
:10B7E000DAF80410B1EB0B0118BF0121E3E7414681
:10B7F000E1E701214FF48050DDE7A042E9D316B123
:10B800000448FFF785FF002003B0BDE8F08F00BFBC
:10B810005878002070780020DBE5B1510050070017
:10B8200090F8552012F0FB0F07D190F8643023B147
:10B83000836ECBB10B600120704712F0010303D07F
:10B8400090F8563003B1836D9207F2D590F85C20E2
:10B85000002AEED0054A006EC2F5FC22904201D8C3
:10B860000344E6E7042070470F207047008007007C
:10B870002DE9FF472F49304D8A6B304C304FDFF8B0
:10B88000D490DFF8D4A06E465C313046FEF740FC21
:10B8900096E80F0085E80F0000212A4B39704FF41D
:10B8A00047722046C9F80010CAF80010EB6001F09A
:10B8B00045FE254922462846FEF7C9FE20B9002745
:10B8C000384604B0BDE8F0873F78002FF7D094F8F1
:10B8D0006C3194F800801BB3B8F1000FEFD194F8ED
:10B8E0007231002BEBD0DAF80020D9F80010304686
:10B8F000FEF70EFC96E80F0085E80F004FF4B272D9
:10B90000414604F5BA7001F019FE104904F5BA7207
:10B910002846FEF79CFE0028D1D004F5BA7406E054
:10B92000B8F1000FCBD0A379002BC8D00834084B56
:10B930001C60C5E758780020247F0020087C002088
:10B94000047C00205DB90700C8D8070014D80700A0
:10B95000E07F0020007C0020FC7B002030B55B688D
:10B96000DA680D4B9A4208D10C4C236813B90C4984
:10B970000B681BB10B4B00221A7030BDD0E90132AD
:10B980001A4413F9015B002DA2EB0300F9DB2360DD
:10B990000860044B0122EFE714D80700007C002068
:10B9A000FC7B0020047C002010B54FF44053164C63
:10B9B0005968A142024624D000F500535B68181B69
:10B9C00043424341A14218461AD102F500535A6836
:10B9D0008A4215D14FF440521178142982BF506920
:10B9E0000A4AB0FBF2F01A7898BF0020142A83BFED
:10B9F0005B69064AB3FBF2F30023C01A18BF0120AB
:10BA000010BD0023DEE700BFDBE5B15140420F006F
:10BA100000B591B0FDF778FD684608492022FDF792
:10BA2000A6FD6A46064907484023FDF7C5FC064BBC
:10BA300001221A7011B05DF804FB00BFF4D60700B4
:10BA4000347F0020E4D60700D87B0020F0B5A3B0F7
:10BA500007460D4614461E4678222023002104A8DE
:10BA6000029301F06BFD00230393194B1B780BB974
:10BA7000FFF7CEFF2DB337BB02AB164F019316492C
:10BA8000289B0097324604A8FDF724FDE8B9402C16
:10BA90001BD1124E22462946304601F041FD20219D
:10BAA0003046FDF770FDCDE90064029B0C493A4633
:10BAB00003A8FDF79DFC00280CBF0120052023B042
:10BAC000F0BD1320FBE71620F9E70A20F7E700BFD7
:10BAD000D87B00207C7F00206CD707009C7F002053
:10BAE000347F0020F0B5ABB004460D4616461F4625
:10BAF0007822202300210CA8039301F01FFD114B95
:10BB00001B780BB9FFF784FF2FB12146202204A830
:10BB1000FDF722FD04AC03AB0B4F01930B490097DB
:10BB200033462A460CA8FDF7D5FC48B92022214609
:10BB3000384601F0E5FCB0FA80F040092BB0F0BDCA
:10BB40000020FBE7D87B0020D97B00206CD70700C2
:10BB500008B5044B986B08B1FFF78AFE024B1870CA
:10BB600008BD00BF58780020DC7F002010B50446D7
:10BB700058B1B0F5007F0AD8064B00221A70FFF7C3
:10BB800031FD054B01209C6310BD0320FCE7042020
:10BB9000FAE700BFDC7F00205878002070B50E4C1B
:10BBA0000646E06BA36B42189A420D4611D85C30F2
:10BBB0000A462044314601F0B3FCE36B04F1400235
:10BBC0002B4429463046E363FCF700FE2064012045
:10BBD00070BD0320FCE700BF58780020014B1878A7
:10BBE000704700BFDC7F002013B5104C94F86C2127
:10BBF000B2B194F8D802B4F8DA2204F5377104F53A
:10BC0000B8740B4B1B6800930A4B1B68FFF71EFFB1
:10BC1000012809D1201D02B0BDE8104000F0BEB9D6
:10BC2000114610460434ECE702B010BD087C002039
:10BC3000FC7B0020007C00202DE9F0411F4BD3E964
:10BC40000E329A4206460D4633D1DFF8788098F8D6
:10BC500000704FB1FFF77CFD194B30602946186822
:10BC6000BDE8F041FFF7DCBDFFF702FE18B3FFF7B8
:10BC7000BBFF0128376004462F6017D1104B2946BF
:10BC80001868FFF7CDFD012804460FD103463A4658
:10BC900028683946FFF770FD38B9FFF759FD88F875
:10BCA000004030602046BDE8F0810424FFF79AFC94
:10BCB000F8E70824F6E70524F4E700BF58780020E9
:10BCC000E07F0020DC7F002001237230FFF70ABFF5
:10BCD00013B50446084623781146032B03D8DFE842
:10BCE00003F021050F18002002B010BD0022D4F887
:10BCF0000140FCF76BFD844214BF00200120F3E7F4
:10BD00000A4600230146601C02B0BDE81040FFF760
:10BD1000E9BE009103464022611C0020FFF796FE19
:10BD20000128E9E70120DFE72DE9F043A3B005464C
:10BD30000E461446002178221F4604A820239DF8B1
:10BD4000AC800393DDF8A89001F0F8FB41220021BC
:10BD5000284601F0F3FBB6F89430A34282BF442397
:10BD600003FB046393F8968085F80080B8F1030F15
:10BD70001ED8DFE808F00902111F002249463846A4
:10BD8000FCF724FDC5F801004A4639462846FFF76E
:10BD90009FFF23B0BDE8F08303AB01936B1C0093BE
:10BDA0000A494B463A4604A8FDF794FB0028EBD01D
:10BDB0000020EEE744214C4333199A34B3F898201D
:10BDC0003119681C01F0ACFBDEE700BF6CD707003F
:10BDD0002DE9F047684B1D68A4B004460F46904615
:10BDE0000A4601462846FFF76FFF002800F0C18091
:10BDF00095F855601EBB4FF00109CDE90079234647
:10BE00003246294613A8FFF78FFF002874D0B8F1F7
:10BE1000000F60D04122594813A901F081FB584B13
:10BE2000C3F82C901E626A689A6000223946204648
:10BE3000FCF7CCFC524B0125C3E9097094E0412288
:10BE4000002102A801F07AFB06F00109412200213D
:10BE500013A806F0020601F071FBB9F1000F3ED005
:10BE600004F50052474B5068984245D1D5F858A088
:10BE70000AF5FF530AF6FF71C1F30B011F335B1A7A
:10BE80009168994238D34FF44053596881420CD19C
:10BE90001978102988BF1969137898BF0021102BD1
:10BEA0008CBF13690023994226D12046FFF77CFD01
:10BEB00000B10EB30123CDE900A300222346294699
:10BEC00002A8FFF731FFB8B1AA6DA318BA1A4EB98C
:10BED000B8F1000F1AD12A4B01255D6112E03A46F4
:10BEE0002346F4E70021CDE9002113A84A4629465C
:10BEF000FFF71AFF0028EBD10525B8F1000F30D16C
:10BF0000FFF770FB284624B0BDE8F087DFF87080AB
:10BF1000B9F1000F21D02046FFF746FD18B108F116
:10BF20001800FFF7F5FB1848412202A901F0F8FAC2
:10BF3000002E14BFAC23A523C8F82C30AB6DC8F875
:10BF40003430002E3FF471AF1048412213A901F0A4
:10BF5000E7FA6B68C8F80C3067E7AA23C8F82C30FA
:10BF6000EFE70B48FFF7D4FBFFF73CFB044B9C6467
:10BF7000C8E71725C1E700BFE07F0020F97A00205D
:10BF800058780020DBE5B151B87A00203A7B0020D8
:10BF90007C7800200122FFF71BBF0000F0B590F86D
:10BFA00054200346002A4DD090F85500032849D864
:10BFB00093F86E20032A43D11A7A002A42D0DA6815
:10BFC000342A41D14FF4405520496C681A8A8C427A
:10BFD0001FD142B15969A9B1D2B203F114040021B1
:10BFE000CEB2B24201D8122023E054F8047BAE89CD
:10BFF000B74201F10101F3D11A788AB9012818BFBB
:10C000000F2016E010B9012AEDD1F5E70128F3D190
:10C01000E9E712B15A69002AE5D11A78002AE2D07C
:10C0200001285B680A4A05D8906898428CBF1020A6
:10C030000120F0BDD068984234BF01201020F8E7FD
:10C040001420F6E70F20F4E71120F2E7DBE5B15109
:10C050005878002038B1054B0360054B436001233D
:10C060000372002070470E20704700BF9BC007007E
:10C0700075C0070069B10B78022B0CD1022804D0DF
:10C08000032814BF08201120704703230B700020E1
:10C0900070470E2070470820704710B50C4681B1DC
:10C0A0000B78012B06D00ED9033B012B94BF08203F
:10C0B000112010BDFFF7ACFA0028FAD1022323703B
:10C0C000F7E70E20F5E70820F3E7000070B5144B02
:10C0D000144A0C21D21AB2FBF1F2816911F8025C08
:10C0E000044635B900690021914205D1012323603E
:10C0F0000EE04FF0FF30F6E71E68AE420CD1461C52
:10C1000007D19D68D4E90001D4E90223A847206043
:10C1100070BD5E688642F4D001310C33E4E700BFA5
:10C1200060DA07006CDA07001EF0040F0CBFEFF3B3
:10C130000880EFF30980FFF7C9BF00BF10DF704729
:10C1400011DF704713B5044609496846FCF7B4FE91
:10C15000019808B902B010BDD0E9002120469047EF
:10C1600018B16846FCF7B1FEF2E71120F2E700BF14
:10C1700064D9070013B5044607496846FCF79CFEDE
:10C18000019B0BB902B010BD2046D3E900219047B6
:10C190006846FCF79AFEF3E77CD90700084B9A68DB
:10C1A00022B11A6822F480021A607047054B4FF4DE
:10C1B0008002C3F88020BFF34F8FBFF36F8F7047AB
:10C1C0004C5A002000E100E00B4991F816335A095F
:10C1D000EC231341DB0706D5084B9A683AB94FF4B4
:10C1E00080030B60704742F20200FDF70CBA1A6838
:10C1F00042F480021A60704700E100E04C5A0020CF
:10C20000F7B5194F3C7864BB184E012520463570B0
:10C21000FFF798FF112821D02046FFF7ABFF144B02
:10C220008DF80340186801900DF10300FCF794FAB3
:10C23000104901A8FFF782FF0446B0FA80F04009D8
:10C2400038709DF80300FCF7ABFA3CB90A4B347028
:10C250001C70FFF7B9FF2846FFF78CFF204603B09C
:10C26000F0BD0824FAE700BFE57F0020E47F00204E
:10C270005ED9070001960700E67F0020F7B5154F4D
:10C280003B781BB3144E01203070FFF75BFF112881
:10C290004FF000051CD00220FFF76CFF0DF10700E6
:10C2A0008DF80750FCF758FAFFF74AFF04469DF84F
:10C2B00007003D70FCF774FA2CB903203470FFF7C7
:10C2C0006DFFFFF757FF204603B0F0BD0824FAE7E3
:10C2D0002C46F8E7E57F0020E47F0020054B1B7823
:10C2E00033B1054B1B780BB1FFF7C8BFFFF788BF11
:10C2F00008207047E47F0020E57F0020014B18787C
:10C30000704700BFE57F002007B508496846FCF785
:10C31000D3FD019B13B903B05DF804FBD3E9002002
:10C3200090476846FCF7D1FDF3E700BF70D90700DE
:10C33000FFF7EABF60DF704769DF704761DF704772
:10C3400030B5134DADF5017D4FF4FA740DF10201D6
:10C3500003A8ADF80240FFF7F1FF70B9294601A824
:10C36000FCF7AAFD029B002BF0D003A8D3E9002123
:10C37000904701A8FCF7A9FDF4E7052805D00DF5C5
:10C38000017DBDE83040FDF73EB90DF5017D30BDC2
:10C3900088D90700024B1B780BB1FFF7D1BF70475C
:10C3A000E77F002018B1034B0360002070470E2088
:10C3B000704700BF68590020F0B5074685B00D46AC
:10C3C00000295DD02F4B0B600C22002101A801F049
:10C3D000B5F8012606232A68ADF8083001A9202007
:10C3E0008DF804708DF80660FFF7A6FF0C2200217F
:10C3F00001A801F0A3F800242A688DF8056001A9BE
:10C400004020ADF80640FFF797FF0C22214601A817
:10C4100001F094F8F7232A68ADF8063001A923202B
:10C420008DF80470FFF788FF0C22214601A801F067
:10C4300085F82A688DF8046001A93046FFF77CFF73
:10C440000C22214601A801F079F84FF4B0632A6864
:10C45000019301A9A120FFF76FFF0C22214601A83B
:10C4600001F06CF89DF804302A6864F3000301A918
:10C47000A0208DF80430FFF75FFF204605B0F0BD27
:10C480000E20FBE76859002008B5FFF753FF10B9ED
:10C49000014B01221A7008BDE77F00204BDF704777
:10C4A0001FB50E4C01A8FFF7F9FF70B9214602A88D
:10C4B000FCF702FD039B002BF4D00198D3E9002187
:10C4C000904702A8FCF701FDF4E7052804D004B06A
:10C4D000BDE81040FDF797B804B010BD94D907002F
:10C4E0008B1810448B4200D1704713F8012D00F8CF
:10C4F000012DF7E700000000000000000000000030
:10C50000C3F10803DB0070B501330446002003A526
:10C510005B1920C940CAAD1920C4184720C940CAB8
:10C52000754120C420C940CA754120C420C940CAF1
:10C53000754120C420C940CA754120C420C940CAE1
:10C54000754120C420C940CA754120C420C940CAD1
:10C55000754120C4404170BD000000000000000093
:10C56000C3F10803DB0070B50133002403A500BF4D
:10C570005B1920C940CAAD1B20C0184720C940CA5A
:10C58000B54120C020C940CAB54120C020C940CA19
:10C59000B54120C020C940CAB54120C020C940CA09
:10C5A000B54120C020C940CAB54120C020C940CAF9
:10C5B000B54120C06441B4FA84F0400970BD00BFA9
:10C5C0002DE9F04F08B4F8CA04B451F8042BA3FBCA
:10C5D000028940F8048B4FF0000AE4FB629A4FF0A6
:10C5E000000BE5FB62AB4FF0000CE6FB62BC4FF0CA
:10C5F000000EE7FB62CE51F8042B4FF00008E3FB7E
:10C60000628940F8048BE4FB629AE5FB62ABE6FBCF
:10C6100062BCE7FB62CE51F8042B4FF00008E3FB4D
:10C62000628940F8048BE4FB629AE5FB62ABE6FBAF
:10C6300062BCE7FB62CE51F8042B4FF00008E3FB2D
:10C64000628940F8048BE4FB629AE5FB62ABE6FB8F
:10C6500062BCE7FB62CE51F8042B4FF00008E3FB0D
:10C66000628940F8048BE4FB629AE5FB62ABE6FB6F
:10C6700062BCE7FB62CE40F8049B40F804AB40F894
:10C6800004BB40F804CB40F804EB0CBC052B00F0D5
:10C690001E810C68A0F11400A1F11401A2F1140292
:10C6A00052F804EB4FF0000550F8046BE4FB6E56B3
:10C6B00052F804EB50F8047BE4FB6E6752F804EB8D
:10C6C00050F8048BE4FB6E7852F804EB50F8049BAE
:10C6D000E4FB6E8952F804EB50F804ABE4FB6E9A6D
:10C6E000A0F1140052F8044B51F804EB4FF0000C89
:10C6F000E4FB6EC540F804CB51F804EBE4FB6E5646
:10C7000040F8045B51F804EBE4FB6E6740F8046BFF
:10C7100051F804EBE4FB6E7840F8047B51F804EB2D
:10C72000E4FB6E8940F8048B51F804EBE4FB6E9A4D
:10C73000A0E80006062B00F0CA800C68A0F11800E3
:10C74000A1F11801A2F1180252F804EB4FF0000514
:10C7500050F8046BE4FB6E5652F804EB50F8047B7F
:10C76000E4FB6E6752F804EB50F8048BE4FB6E7840
:10C7700052F804EB50F8049BE4FB6E8952F804EB8A
:10C7800050F804ABE4FB6E9A52F804EB50F804BB8B
:10C79000E4FB6EABA0F1180052F8044B51F804EB27
:10C7A0004FF0000CE4FB6EC540F804CB51F804EBED
:10C7B000E4FB6E5640F8045B51F804EBE4FB6E6753
:10C7C00040F8046B51F804EBE4FB6E7840F8047B0E
:10C7D00051F804EBE4FB6E8940F8048B51F804EB4C
:10C7E000E4FB6E9A40F8049B51F804EBE4FB6EAB5B
:10C7F000A0E8000C072B6AD008B40C68A0F11C005C
:10C80000A1F11C01A2F11C0252F804EB4FF000054B
:10C8100050F8046BE4FB6E5652F804EB50F8047BBE
:10C82000E4FB6E6752F804EB50F8048BE4FB6E787F
:10C8300052F804EB50F8049BE4FB6E8952F804EBC9
:10C8400050F804ABE4FB6E9A52F804EB50F804BBCA
:10C85000E4FB6EAB52F804EB50F804CBE4FB6EBC87
:10C86000A0F11C0052F8044B51F804EB4FF0000308
:10C87000E4FB6E3540F8043B51F804EBE4FB6E56E4
:10C8800040F8045B51F804EBE4FB6E6740F8046B7E
:10C8900051F804EBE4FB6E7840F8047B51F804EBAC
:10C8A000E4FB6E8940F8048B51F804EBE4FB6E9ACC
:10C8B00040F8049B51F804EBE4FB6EAB40F804AB8A
:10C8C00051F804EBE4FB6EBCA0E8001808BCBDE81E
:10C8D000F08F002310B51C465AB2914200DC10BD07
:10C8E00040F823400133F7E710B500231A465CB245
:10C8F000A14203DCB2FA82F0400910BD50F8234097
:10C9000001332243F3E74A11012350F8220001F0DA
:10C910001F0103FA01F108407047013910B549B20F
:10C92000041D0A06CBB204D4013954F82120002A90
:10C93000F7D001335BB273B103F18042013A50F892
:10C940002220002022B9013B00EB431318B210BD96
:10C9500052080130F6E71846F9E710B500235CB23B
:10C96000A24200DC10BD51F8234040F823400133BF
:10C97000F5E710B5013A52B2130601D5002010BDFB
:10C9800050F8224051F822309C4205D802F1FF3283
:10C99000F2D24FF0FF30F2E70120F0E700EB810127
:10C9A0000023884200D3704751F8042D43EA520314
:10C9B0000B60D307F5E737B51D469DF91830019395
:10C9C0000446FFF79DFD019B38B91A4621462846CB
:10C9D000FFF7CFFF0128019B07D02A4621462046BA
:10C9E00003B0BDE83040FFF7BBBD03B030BD37B585
:10C9F0001D469DF9183001930446FFF7B1FD019BD8
:10CA000038B12A462146204603B0BDE83040FFF742
:10CA100077BD03B030BD2DE9F04FB5B004AC9DF942
:10CA2000F8501F4680462B462046FFF7C9FD24AB31
:10CA300029463846CDE90234FFF76FFFC0EB851079
:10CA400004B2002C2146B8BF04F11F01634203F079
:10CA50001F0341F3471104F01F0614A858BF5E429C
:10CA6000FFF737FF002E08B22BDD14AB002203EBDB
:10CA70008000C6F1200E1346AB4217D36B00019322
:10CA800014AB03EB85096F1E34AB012603EB87075C
:10CA9000002C54DA34AB03EB86062A4656F8C81C41
:10CAA0004046FFF75AFF35B0BDE8F08F57F823C076
:10CAB0000CFA06F10A4340F8042B01332CFA0EF26B
:10CAC000DAE714AB2A46394603EB8000FFF745FF4F
:10CAD000D4E70FFA82FE5AF8C83C53F82EB034ABB4
:10CAE00003EB8202013052F8803C0B44BBEB0303A2
:10CAF00034BF012200229B4518BF11465CF8C82CA8
:10CB000042F82E30019B42B29A42E2DB731A5E4237
:10CB1000294614A85E41FFF741FF34AB03EB8503C0
:10CB2000294653F8802C57F8803C43EAC27347F8F3
:10CB3000803C4846013CFFF731FF24B2A8E734AB04
:10CB40000020C6F1010C014603EB860A03EB8C0CB6
:10CB5000D8E730B51C4691B0054693F900306846D9
:10CB6000FFF72EFDD4F8AC3069462846984711B03F
:10CB700030BD13460A46FFF7ECBF2DE9F04793F9A5
:10CB8000006092B0044689461046314615461F465D
:10CB9000FFF7AAFE002840F091803A46494602A8D5
:10CBA000FFF7E7FF3B4602AA21460AA8FFF7D1FF9D
:10CBB00002A908463A46FFF7DCFF3B462A464946AB
:10CBC0004846FFF7C6FF07F104083A4629462846BB
:10CBD000FFF7CFFF43462A46214620460096FFF73F
:10CBE000EAFE43462A46294628460096FFF7E3FE1A
:10CBF00043462A46214628460096FFF7F8FE3B4664
:10CC00002A4621462046FFF7A4FF434622462146F6
:10CC100028460096FFF7CFFE434600962A46214657
:10CC20002046FFF7C8FE2368DB074AD53346424655
:10CC300021462046FFF764FC314682462046FFF736
:10CC4000ADFE06F18043013B54F8232042EACA724C
:10CC500044F823203A4621462846FFF78AFF4346F8
:10CC60000AAA294628460096FFF7C1FE43460AAAAB
:10CC7000294628460096FFF7BAFE0AA90846434609
:10CC80002A460096FFF7B3FE3B460AAA21462046F5
:10CC9000FFF75FFF02AA4346104621460096FFF7C2
:10CCA000A6FE324629462046FFF757FE494628464B
:10CCB000FFF753FE02A94846FFF74FFE12B0BDE84A
:10CCC000F08731462046FFF769FEC3E72DE9F041C2
:10CCD00015468AB004460E461C22002103A800F027
:10CCE0002DFC2F1D95F9008003232A46314620464E
:10CCF0000293FFF73EFF3B4602AA21462046CDF8AD
:10CD00000080FFF774FE2B46324621462046FFF78F
:10CD100020FFCDF800803B4605F1840221462046E5
:10CD2000FFF749FE0AB0BDE8F08100002DE9F042AE
:10CD3000082288B0FFF711FECB6A03930B6B0493B4
:10CD40004B6B05938B6B0693CB6B07930C4681461D
:10CD50000027134669466A466846CDE90177009781
:10CD6000FFF7CEFB082305466A4649464846FFF7CB
:10CD7000C7FB236B0393636B0493A36B0593E36B74
:10CD80000544CDE906376A46082369466846FFF739
:10CD9000B7FB082305446A4649464846FFF7B0FBFF
:10CDA000236A0093636A0193A36A0293A36B0693B9
:10CDB000E36B0793054408236A4649464846CDE994
:10CDC00004770397FFF79CFB636A0093A36AA26B47
:10CDD0000193E36A02930492636BE26B0393CDE9E0
:10CDE0000523236A07932E1808236A4649464846B6
:10CDF000FFF786FBE36A0093236B0193636B029357
:10CE0000236A0693A36A0793351808236A4649469E
:10CE10004846CDE904770397FFF7A2FB236B009305
:10CE2000636B0193A36B0293E36B0393636A0693B3
:10CE3000E36A07932E1A08236A4649464846CDE915
:10CE40000477FFF78DFB636B0093A36B0193E36B98
:10CE50000293236A0393636A0493A36ACDE90537B7
:10CE6000236B0793361A08236A4649464846FFF75C
:10CE700077FBA36B0093E36BCDE90137636A039300
:10CE8000A36A0493E36ACDE90537636B0793361A07
:10CE900008236A4649464846FFF762FB361A0E4C9D
:10CEA0000FD436B9082249462046FFF762FD012813
:10CEB0000FD00823224649464846FFF751FB361A51
:10CEC000EFE70823224649464846FFF719FB361884
:10CED000F7D408B0BDE8F082A4D9070070B51446B5
:10CEE0008AB006460D461A46214602A80193FFF76E
:10CEF00040FE019B02AA31463046FFF72AFE02A9F6
:10CF0000019B22460846FFF724FE019B02AA294600
:10CF10002846FFF71EFE0AB070BD2DE9F04F8BB01A
:10CF2000DDE914B94D46144615F9046B00961F4609
:10CF300080468A462B460246214602A8FFF757FD47
:10CF400002A94A460846FFF714FE4B4602AA41468C
:10CF50004046FFF7FEFD4B4602AA21462046FFF75A
:10CF6000F8FD2B465246394638460096FFF73FFDFE
:10CF70004A46394602A8FFF7FCFD02A92B46424665
:10CF800008460096FFF733FD02A92B4622460846C5
:10CF90000096FFF72CFD2B46424621462046009680
:10CFA000FFF725FD4B46224651465046FFF7D1FD7F
:10CFB0002B4602AA414658460096FFF718FD4B46FD
:10CFC0005A4639463846FFF7C4FD2B465246394685
:10CFD00038460096FFF70BFD324602A92046FFF7C0
:10CFE000BCFC0BB0BDE8F08F2DE9F0471F46B3F94C
:10CFF000023013F11F0448BF03F13E04DD1D48BF9A
:10D0000003F10E056611EC10944275B228BF144668
:10D0100089462946FFF75DFC224649468046FFF7D0
:10D020005FFAB7F90230B3EBC40F4FEAC4021FD264
:10D03000D21A08EB86040021C2F12006A0450ED3C7
:10D0400024372A4641463846FFF793FC01280FD083
:10D050002B463A464046BDE8F047FFF781BA54F800
:10D06000040D20FA02F30B43236000FA06F1E5E712
:10D07000BDE8F08770B5036813F001060546144655
:10D0800005D013460A460146FFF73AFA06462146FE
:10D090002846FFF783FC46B104F18042013A55F877
:10D0A000223043F0004345F8223070BDF0B50F4602
:10D0B000A1B006461946384615461C46FFF714FC33
:10D0C00028B1304621B0BDE8F040FFF702BC22464F
:10D0D00039466846FFF741FC294608A8FFF73DFCA2
:10D0E00010A82146FFF7F5FB012318A81093FFF7BE
:10D0F000F0FB224608A96846FFF73BFC30B9224600
:10D1000010A93046FFF729FC21B0F0BD009BDA07DB
:10D1100009D421466846FFF741FC2246294610A85B
:10D12000FFF7A8FFE5E7089BDB0707D4214608A81F
:10D13000FFF734FC2246294618A8F1E700282346C9
:10D140001CDD08AA69466846FFF70AFA21466846C8
:10D15000FFF724FC224618A910A8FFF70AFC0028B4
:10D1600005DA10A923462A460846FFF7C9F910A98F
:10D17000234618AA0846FFF7F3F9CEE76A4608A83F
:10D18000FFF7EEF9214608A8FFF708FC224610A990
:10D1900018A8FFF7EEFB002805DA18A923462A464F
:10D1A0000846FFF7ADF918A9234610AA0846FFF76D
:10D1B000D7F9BFE700487047A0D907002DE9F04F25
:10D1C0002DED028BEDB00D46789E05901946B6F90F
:10D1D000023096F9004013F11F0848BF03F13E08E2
:10D1E00048F3471808F1FF3B24AB002743F82B70A6
:10D1F0006CAB03EB8B034CA843F8807C43F8607C5A
:10D20000924696F90120FFF76BF996F9012054A890
:10D210001144FFF765F921464CA8FFF765FB8146ED
:10D22000002840F02E8154A8FFF75EFB03900028F1
:10D2300040F0298106F1240942464CA94846FFF7EF
:10D2400098FB012840F02181424654A94846FFF747
:10D2500090FB0128069040F018810CAF43464A46E7
:10D260001CA8FFF723FF039B47F82B3052462946A3
:10D2700038463346FFF7B8FE394638464B461CAAB7
:10D28000CDF80080FFF7C7FB0DF5B87B4B461CAA15
:10D290004CA914A8CDF80080FFF7BDFB22465846E4
:10D2A0000599FFF75AFBA3000793059B0BEB840A34
:10D2B00003EB84015046FFF750FB34AD06F1440305
:10D2C000194628460493FFF748FB049BA100591810
:10D2D0003CA8FFF742FB331D2A4659461CA8009480
:10D2E00008EE103AFFF783FB53465A462846CDE92D
:10D2F00000563CA9FFF711FE1CA9084618EE102A9B
:10D300002346FFF7D3FE1CAA514658463346FFF783
:10D31000E5FD039B0893049B0993059B4146384612
:10D32000CDE90A3BFFF7F9FA4146834614A8FFF717
:10D33000F4FA5845B8BF584685B2691E09B2384656
:10D340000491FFF7E0FA0499071E14A818BF0127FB
:10D35000FFF7D9FA002814BF022000200DF1200A9F
:10D36000074322465AF8271024A8FFF7F6FA0DF1D2
:10D37000B00BA30019445846FFF7EFFA1CA821464A
:10D38000FFF7A7FA069B0360023D24AB2DB204937E
:10D390008246002D26DA18EE102A234651465046C2
:10D3A000FFF784FE0498334652465946FFF796FD30
:10D3B000049942464846FFF7DCFA012804D0434668
:10D3C0004A460846FFF7CCF8013C64B24CAA230653
:10D3D0004CD5039BB3FA83F040096DB0BDEC028BD2
:10D3E000BDE8F08F33465246D6F8A47004985946EB
:10D3F000B84729460CA8FFF786FA2946071E14A845
:10D4000018BF0127FFF77FFA002814BF0220002071
:10D41000074308AB53F8271029B334AF22463846E8
:10D42000FFF79BFA079B3CA81944FFF796FA0146C1
:10D43000334652463846FFF751FD18EE103A04992C
:10D4400000943A4644A8FFF7D2FA049A5B463CA9F6
:10D450003846CDE90076FFF760FD334644AA5146D1
:10D460005046FFF776FB013D2DB292E7049B52F840
:10D47000241053F824304B40039919430391013C85
:10D48000A5E73846A9E74846A7E70398A5E70000BF
:10D4900008B5074B044613B10021AFF30080054BDC
:10D4A0001868836A03B19847204600F057F800BF18
:10D4B0000000000050DA070070B50D4D0D4C641BE4
:10D4C000A4100026A64209D10B4D0C4C00F048F8E0
:10D4D000641BA4100026A64205D170BD55F8043B7C
:10D4E00098470136EEE755F8043B98470136F2E7D6
:10D4F000005A0020005A0020005A0020045A002040
:10D5000010B501390244904201D1002005E00378B2
:10D5100011F8014FA34201D0181B10BD0130F2E7F2
:10D520000A44914200F1FF3300D1704710B511F861
:10D53000014B03F8014F9142F9D110BD024403465B
:10D54000934200D1704703F8011BF9E7034613F833
:10D55000012B002AFBD1181A01387047FEE700BFE3
:10D56000F8B500BFF8BC08BC9E467047F8B500BFD0
:10D57000F8BC08BC9E467047000001010100000095
:10D580000101000000000101000000000010000087
:10D590000400000001000000B18A0700D58A0700DE
:10D5A000E58A0700F58A0700498B0700BD8A070056
:10D5B000C18A0700C58A07000010000004000000AF
:10D5C00001000000618C0700418C0700318C0700CE
:10D5D000698E07001D8E0700038C0700078C07006B
:10D5E0000D8C0700982F8A4291443771CFFBC0B54C
:10D5F000A5DBB5E95BC25639F111F159A4823F921E
:10D60000D55E1CAB98AA07D8015B8312BE85312476
:10D61000C37D0C55745DBE72FEB1DE80A706DC9B37
:10D6200074F19BC1C1699BE48647BEEFC69DC10FE3
:10D63000CCA10C246F2CE92DAA84744ADCA9B05C1F
:10D64000DA88F97652513E986DC631A8C82703B0E2
:10D65000C77F59BFF30BE0C64791A7D55163CA06F0
:10D6600067292914850AB72738211B2EFC6D2C4DFC
:10D67000130D385354730A65BB0A6A762EC9C281EA
:10D68000852C7292A1E8BFA24B661AA8708B4BC280
:10D69000A3516CC719E892D1240699D685350EF4AA
:10D6A00070A06A1016C1A419086C371E4C77482761
:10D6B000B5BCB034B30C1C394AAAD84E4FCA9C5BD7
:10D6C000F36F2E68EE828F746F63A5781478C88428
:10D6D0000802C78CFAFFBE90EB6C50A4F7A3F9BE0A
:10D6E000F27871C64800280000204000B5D107003C
:10D6F00011121314E5A50E5B47DD065B2C273B1AC0
:10D700000AB90D581B884B9E1BBE3808AE93E6879E
:10D71000B16D50038433BB3F132B215713FEAEC2B0
:10D7200029F529F5BBE7C96728CBE03C904541A224
:10D73000D6A0C94B0000000000000000000000005F
:10D740000338FDD870470000D9A107007FA107006A
:10D75000D3A6070043A7070063A70700CFA00700D1
:10D7600091A007006FA60700000000008FA7070028
:10D7700089A7070069A707002000000078000000C3
:10D780000000000001000100000000000100000096
:10D79000000000000200050001000000420000003F
:10D7A0000000000000000000000000000000000079
:10D7B00000000000010011000100FFFF0100000057
:10D7C00000000000020017000200FEFF64010000DC
:10D7D00014D8070000000000000000000000000056
:10D7E0000000000001000100000000000100000036
:10D7F00000000000020005000100000022000000FF
:10D800000000000000000000000000000000000018
:10D8100000000000010011000400FCFF04000000F3
:10D8200000000000020011000400FCFF04000000E2
:10D8300000000000030021000400FCFF04001000B1
:10D8400000000000040011000100FFFF01000000C3
:10D8500000000000050011000200FEFF04000000AF
:10D8600000000000060011000400FCFF040000009E
:10D8700000000000070011000400FCFF040000008D
:10D8800000000000080017000200FEFF2400000056
:10D89000E4D70700090010000100FFFF01000000AD
:10D8A000C4D807000A0027000200FEFF440003005E
:10D8B00084D7070000000000000000000000000006
:10D8C0000000000000000000010017000400FCFF41
:10D8D00068010000B4D70700020017000400FCFF35
:10D8E000AC010000F8D807000000000000000000B4
:10D8F0000000000000000000010007000000000020
:10D9000068010000B4D70700020001000000000019
:10D9100001000000000000000300050001000000FD
:10D9200042000000000000000000000000000000B5
:10D93000000000000000000044667554617267003A
:10D9400050EADA308883B89F604F15F30000C98E23
:10D950000338FDD870470C000C000000580201008D
:10D960000007000088DA070090DA070008000000CE
:10D9700098DA0700A8DA07000800000090DA07002C
:10D9800098DA07000800000080DA070088DA07004C
:10D9900008000000A8DA0700B0DA0700080000005D
:10D9A00008200001FFFFFFFFFFFFFFFFFFFFFFFF5A
:10D9B0000000000000000000000000000100000066
:10D9C000FFFFFFFF512563FCC2CAB9F3849E17A76E
:10D9D000ADFAE6BCFFFFFFFFFFFFFFFF0000000006
:10D9E000FFFFFFFF96C298D84539A1F4A033EB2D75
:10D9F000817D0377F240A463E5E6BCF847422CE161
:10DA0000F2D1176BF551BF376840B6CBCE5E316BA4
:10DA10005733CE2B169E0F7C4AEBE78E9B7F1AFE68
:10DA2000E242E34F4B60D2273E3CCE3BF6B053CCB4
:10DA3000B0061D65BC86987655BDEBB3E7933AAA50
:10DA4000D835C65A7BCB0700CDCC07002DCD0700BB
:08DA5000A059002000000000B5
:08DA5800C9AE0700E5A80700B4
:0CDA6000000000000300000055C007009B
:10DA6C00B8600020F470002005710020C060002018
:04DA7C00F4000000B2
:08DA800051A90700000000009D
:08DA88001D8C070000000000E6
:08DA9000DD8D0700000000001D
:10DA980095C3070000000000A1C4070000000000B3
:08DAA800D18D07000000000011
:08DAB00090A7FF7F01000000B8
:10DAB8000090D003000000000000000000000000FB
